{
  "_format": "hh-sol-artifact-1",
  "contractName": "CoursePlatform",
  "sourceName": "contracts/udemy.sol",
  "abi": [
    {
      "inputs": [],
      "stateMutability": "nonpayable",
      "type": "constructor"
    },
    {
      "anonymous": false,
      "inputs": [
        {
          "indexed": false,
          "internalType": "uint256",
          "name": "id",
          "type": "uint256"
        },
        {
          "indexed": false,
          "internalType": "string",
          "name": "name",
          "type": "string"
        },
        {
          "indexed": false,
          "internalType": "string",
          "name": "provider",
          "type": "string"
        },
        {
          "indexed": false,
          "internalType": "uint256",
          "name": "realAmount",
          "type": "uint256"
        },
        {
          "indexed": false,
          "internalType": "uint256",
          "name": "discountedAmount",
          "type": "uint256"
        },
        {
          "indexed": false,
          "internalType": "address",
          "name": "instructor",
          "type": "address"
        }
      ],
      "name": "CourseCreated",
      "type": "event"
    },
    {
      "inputs": [
        {
          "internalType": "address",
          "name": "",
          "type": "address"
        }
      ],
      "name": "admin",
      "outputs": [
        {
          "internalType": "bool",
          "name": "",
          "type": "bool"
        }
      ],
      "stateMutability": "view",
      "type": "function"
    },
    {
      "inputs": [],
      "name": "courseCount",
      "outputs": [
        {
          "internalType": "uint256",
          "name": "",
          "type": "uint256"
        }
      ],
      "stateMutability": "view",
      "type": "function"
    },
    {
      "inputs": [
        {
          "internalType": "uint256",
          "name": "",
          "type": "uint256"
        }
      ],
      "name": "courses",
      "outputs": [
        {
          "internalType": "uint256",
          "name": "id",
          "type": "uint256"
        },
        {
          "internalType": "string",
          "name": "name",
          "type": "string"
        },
        {
          "internalType": "string",
          "name": "provider",
          "type": "string"
        },
        {
          "internalType": "uint256",
          "name": "realAmount",
          "type": "uint256"
        },
        {
          "internalType": "uint256",
          "name": "discountedAmount",
          "type": "uint256"
        },
        {
          "internalType": "address payable",
          "name": "instructor",
          "type": "address"
        }
      ],
      "stateMutability": "view",
      "type": "function"
    },
    {
      "inputs": [
        {
          "internalType": "string",
          "name": "_name",
          "type": "string"
        },
        {
          "internalType": "string",
          "name": "_provider",
          "type": "string"
        },
        {
          "internalType": "uint256",
          "name": "_realAmount",
          "type": "uint256"
        },
        {
          "internalType": "uint256",
          "name": "_discountedAmount",
          "type": "uint256"
        }
      ],
      "name": "createCourse",
      "outputs": [],
      "stateMutability": "nonpayable",
      "type": "function"
    },
    {
      "inputs": [],
      "name": "owner",
      "outputs": [
        {
          "internalType": "address",
          "name": "",
          "type": "address"
        }
      ],
      "stateMutability": "view",
      "type": "function"
    }
  ],
  "bytecode": "0x6080604052600060015534801561001557600080fd5b5033600260006101000a81548173ffffffffffffffffffffffffffffffffffffffff021916908373ffffffffffffffffffffffffffffffffffffffff1602179055506001600360003373ffffffffffffffffffffffffffffffffffffffff1673ffffffffffffffffffffffffffffffffffffffff16815260200190815260200160002060006101000a81548160ff021916908315150217905550610d91806100be6000396000f3fe608060405234801561001057600080fd5b50600436106100575760003560e01c806363a846f81461005c578063660551591461008c5780638da5cb5b146100aa57806396f979d2146100c8578063d4c4ecfa146100fd575b600080fd5b6100766004803603810190610071919061051d565b610119565b6040516100839190610565565b60405180910390f35b610094610139565b6040516100a19190610599565b60405180910390f35b6100b261013f565b6040516100bf91906105c3565b60405180910390f35b6100e260048036038101906100dd919061060a565b610165565b6040516100f4969594939291906106e8565b60405180910390f35b6101176004803603810190610112919061088c565b6102d1565b005b60036020528060005260406000206000915054906101000a900460ff1681565b60015481565b600260009054906101000a900473ffffffffffffffffffffffffffffffffffffffff1681565b600060205280600052604060002060009150905080600001549080600101805461018e9061095a565b80601f01602080910402602001604051908101604052809291908181526020018280546101ba9061095a565b80156102075780601f106101dc57610100808354040283529160200191610207565b820191906000526020600020905b8154815290600101906020018083116101ea57829003601f168201915b50505050509080600201805461021c9061095a565b80601f01602080910402602001604051908101604052809291908181526020018280546102489061095a565b80156102955780601f1061026a57610100808354040283529160200191610295565b820191906000526020600020905b81548152906001019060200180831161027857829003601f168201915b5050505050908060030154908060040154908060050160009054906101000a900473ffffffffffffffffffffffffffffffffffffffff16905086565b600360003373ffffffffffffffffffffffffffffffffffffffff1673ffffffffffffffffffffffffffffffffffffffff16815260200190815260200160002060009054906101000a900460ff1661035d576040517f08c379a0000000000000000000000000000000000000000000000000000000008152600401610354906109d7565b60405180910390fd5b6001600081548092919061037090610a26565b91905055506040518060c0016040528060015481526020018581526020018481526020018381526020018281526020013373ffffffffffffffffffffffffffffffffffffffff1681525060008060015481526020019081526020016000206000820151816000015560208201518160010190816103ed9190610c1a565b5060408201518160020190816104039190610c1a565b50606082015181600301556080820151816004015560a08201518160050160006101000a81548173ffffffffffffffffffffffffffffffffffffffff021916908373ffffffffffffffffffffffffffffffffffffffff1602179055509050507f79d0754f33b1a58ea0c3117cd19660228e4b8eea1598597d9e4c59b136813bd8600154858585853360405161049d96959493929190610cec565b60405180910390a150505050565b6000604051905090565b600080fd5b600080fd5b600073ffffffffffffffffffffffffffffffffffffffff82169050919050565b60006104ea826104bf565b9050919050565b6104fa816104df565b811461050557600080fd5b50565b600081359050610517816104f1565b92915050565b600060208284031215610533576105326104b5565b5b600061054184828501610508565b91505092915050565b60008115159050919050565b61055f8161054a565b82525050565b600060208201905061057a6000830184610556565b92915050565b6000819050919050565b61059381610580565b82525050565b60006020820190506105ae600083018461058a565b92915050565b6105bd816104df565b82525050565b60006020820190506105d860008301846105b4565b92915050565b6105e781610580565b81146105f257600080fd5b50565b600081359050610604816105de565b92915050565b6000602082840312156106205761061f6104b5565b5b600061062e848285016105f5565b91505092915050565b600081519050919050565b600082825260208201905092915050565b60005b83811015610671578082015181840152602081019050610656565b60008484015250505050565b6000601f19601f8301169050919050565b600061069982610637565b6106a38185610642565b93506106b3818560208601610653565b6106bc8161067d565b840191505092915050565b60006106d2826104bf565b9050919050565b6106e2816106c7565b82525050565b600060c0820190506106fd600083018961058a565b818103602083015261070f818861068e565b90508181036040830152610723818761068e565b9050610732606083018661058a565b61073f608083018561058a565b61074c60a08301846106d9565b979650505050505050565b600080fd5b600080fd5b7f4e487b7100000000000000000000000000000000000000000000000000000000600052604160045260246000fd5b6107998261067d565b810181811067ffffffffffffffff821117156107b8576107b7610761565b5b80604052505050565b60006107cb6104ab565b90506107d78282610790565b919050565b600067ffffffffffffffff8211156107f7576107f6610761565b5b6108008261067d565b9050602081019050919050565b82818337600083830152505050565b600061082f61082a846107dc565b6107c1565b90508281526020810184848401111561084b5761084a61075c565b5b61085684828561080d565b509392505050565b600082601f83011261087357610872610757565b5b813561088384826020860161081c565b91505092915050565b600080600080608085870312156108a6576108a56104b5565b5b600085013567ffffffffffffffff8111156108c4576108c36104ba565b5b6108d08782880161085e565b945050602085013567ffffffffffffffff8111156108f1576108f06104ba565b5b6108fd8782880161085e565b935050604061090e878288016105f5565b925050606061091f878288016105f5565b91505092959194509250565b7f4e487b7100000000000000000000000000000000000000000000000000000000600052602260045260246000fd5b6000600282049050600182168061097257607f821691505b6020821081036109855761098461092b565b5b50919050565b7f4e6f7420616e2061646d696e0000000000000000000000000000000000000000600082015250565b60006109c1600c83610642565b91506109cc8261098b565b602082019050919050565b600060208201905081810360008301526109f0816109b4565b9050919050565b7f4e487b7100000000000000000000000000000000000000000000000000000000600052601160045260246000fd5b6000610a3182610580565b91507fffffffffffffffffffffffffffffffffffffffffffffffffffffffffffffffff8203610a6357610a626109f7565b5b600182019050919050565b60008190508160005260206000209050919050565b60006020601f8301049050919050565b600082821b905092915050565b600060088302610ad07fffffffffffffffffffffffffffffffffffffffffffffffffffffffffffffffff82610a93565b610ada8683610a93565b95508019841693508086168417925050509392505050565b6000819050919050565b6000610b17610b12610b0d84610580565b610af2565b610580565b9050919050565b6000819050919050565b610b3183610afc565b610b45610b3d82610b1e565b848454610aa0565b825550505050565b600090565b610b5a610b4d565b610b65818484610b28565b505050565b5b81811015610b8957610b7e600082610b52565b600181019050610b6b565b5050565b601f821115610bce57610b9f81610a6e565b610ba884610a83565b81016020851015610bb7578190505b610bcb610bc385610a83565b830182610b6a565b50505b505050565b600082821c905092915050565b6000610bf160001984600802610bd3565b1980831691505092915050565b6000610c0a8383610be0565b9150826002028217905092915050565b610c2382610637565b67ffffffffffffffff811115610c3c57610c3b610761565b5b610c46825461095a565b610c51828285610b8d565b600060209050601f831160018114610c845760008415610c72578287015190505b610c7c8582610bfe565b865550610ce4565b601f198416610c9286610a6e565b60005b82811015610cba57848901518255600182019150602085019450602081019050610c95565b86831015610cd75784890151610cd3601f891682610be0565b8355505b6001600288020188555050505b505050505050565b600060c082019050610d01600083018961058a565b8181036020830152610d13818861068e565b90508181036040830152610d27818761068e565b9050610d36606083018661058a565b610d43608083018561058a565b610d5060a08301846105b4565b97965050505050505056fea2646970667358221220f0e6896a66a6b12c1ff28038447a8509b5e553f37450f838624c131ca8af350764736f6c63430008140033",
  "linkReferences": {},
  "deployedLinkReferences": {}
}