{
  "_format": "hh-sol-artifact-1",
  "contractName": "CoursePlatform",
  "sourceName": "contracts/udemy.sol",
  "abi": [
    {
      "inputs": [],
      "stateMutability": "nonpayable",
      "type": "constructor"
    },
    {
      "anonymous": false,
      "inputs": [
        {
          "indexed": false,
          "internalType": "string",
          "name": "userId",
          "type": "string"
        },
        {
          "indexed": false,
          "internalType": "uint256",
          "name": "courseId",
          "type": "uint256"
        },
        {
          "indexed": false,
          "internalType": "string",
          "name": "studentName",
          "type": "string"
        }
      ],
      "name": "CertificateIssued",
      "type": "event"
    },
    {
      "anonymous": false,
      "inputs": [
        {
          "indexed": false,
          "internalType": "address",
          "name": "user",
          "type": "address"
        },
        {
          "indexed": false,
          "internalType": "uint256",
          "name": "courseId",
          "type": "uint256"
        }
      ],
      "name": "CourseCompleted",
      "type": "event"
    },
    {
      "anonymous": false,
      "inputs": [
        {
          "indexed": false,
          "internalType": "uint256",
          "name": "id",
          "type": "uint256"
        },
        {
          "indexed": false,
          "internalType": "string",
          "name": "name",
          "type": "string"
        },
        {
          "indexed": false,
          "internalType": "string",
          "name": "provider",
          "type": "string"
        },
        {
          "indexed": false,
          "internalType": "string",
          "name": "description",
          "type": "string"
        },
        {
          "indexed": false,
          "internalType": "string",
          "name": "imageHash",
          "type": "string"
        },
        {
          "indexed": false,
          "internalType": "uint256",
          "name": "realAmount",
          "type": "uint256"
        },
        {
          "indexed": false,
          "internalType": "uint256",
          "name": "discountedAmount",
          "type": "uint256"
        },
        {
          "indexed": false,
          "internalType": "address",
          "name": "instructor",
          "type": "address"
        }
      ],
      "name": "CourseCreated",
      "type": "event"
    },
    {
      "anonymous": false,
      "inputs": [
        {
          "indexed": false,
          "internalType": "address",
          "name": "user",
          "type": "address"
        },
        {
          "indexed": false,
          "internalType": "uint256",
          "name": "courseId",
          "type": "uint256"
        }
      ],
      "name": "CoursePurchased",
      "type": "event"
    },
    {
      "anonymous": false,
      "inputs": [
        {
          "indexed": false,
          "internalType": "uint256",
          "name": "courseId",
          "type": "uint256"
        },
        {
          "indexed": false,
          "internalType": "string",
          "name": "videoHash",
          "type": "string"
        },
        {
          "indexed": false,
          "internalType": "string",
          "name": "videoDescription",
          "type": "string"
        }
      ],
      "name": "VideoAdded",
      "type": "event"
    },
    {
      "inputs": [
        {
          "internalType": "uint256",
          "name": "_courseId",
          "type": "uint256"
        },
        {
          "internalType": "string",
          "name": "_videoHash",
          "type": "string"
        },
        {
          "internalType": "string",
          "name": "_videoDescription",
          "type": "string"
        }
      ],
      "name": "addVideoToCourse",
      "outputs": [],
      "stateMutability": "nonpayable",
      "type": "function"
    },
    {
      "inputs": [
        {
          "internalType": "uint256",
          "name": "_courseId",
          "type": "uint256"
        }
      ],
      "name": "buyCourse",
      "outputs": [],
      "stateMutability": "payable",
      "type": "function"
    },
    {
      "inputs": [
        {
          "internalType": "string",
          "name": "",
          "type": "string"
        },
        {
          "internalType": "uint256",
          "name": "",
          "type": "uint256"
        }
      ],
      "name": "certificatesByUserId",
      "outputs": [
        {
          "internalType": "bool",
          "name": "issued",
          "type": "bool"
        },
        {
          "internalType": "string",
          "name": "studentName",
          "type": "string"
        },
        {
          "internalType": "string",
          "name": "courseName",
          "type": "string"
        },
        {
          "internalType": "string",
          "name": "courseProvider",
          "type": "string"
        },
        {
          "internalType": "address",
          "name": "studentAddress",
          "type": "address"
        }
      ],
      "stateMutability": "view",
      "type": "function"
    },
    {
      "inputs": [
        {
          "internalType": "uint256",
          "name": "_courseId",
          "type": "uint256"
        }
      ],
      "name": "completeCourse",
      "outputs": [],
      "stateMutability": "nonpayable",
      "type": "function"
    },
    {
      "inputs": [
        {
          "internalType": "address",
          "name": "",
          "type": "address"
        },
        {
          "internalType": "uint256",
          "name": "",
          "type": "uint256"
        }
      ],
      "name": "courseCompleted",
      "outputs": [
        {
          "internalType": "bool",
          "name": "",
          "type": "bool"
        }
      ],
      "stateMutability": "view",
      "type": "function"
    },
    {
      "inputs": [],
      "name": "courseCount",
      "outputs": [
        {
          "internalType": "uint256",
          "name": "",
          "type": "uint256"
        }
      ],
      "stateMutability": "view",
      "type": "function"
    },
    {
      "inputs": [
        {
          "internalType": "address",
          "name": "",
          "type": "address"
        },
        {
          "internalType": "uint256",
          "name": "",
          "type": "uint256"
        }
      ],
      "name": "coursePurchased",
      "outputs": [
        {
          "internalType": "bool",
          "name": "",
          "type": "bool"
        }
      ],
      "stateMutability": "view",
      "type": "function"
    },
    {
      "inputs": [
        {
          "internalType": "uint256",
          "name": "",
          "type": "uint256"
        }
      ],
      "name": "courses",
      "outputs": [
        {
          "internalType": "uint256",
          "name": "id",
          "type": "uint256"
        },
        {
          "internalType": "string",
          "name": "name",
          "type": "string"
        },
        {
          "internalType": "string",
          "name": "provider",
          "type": "string"
        },
        {
          "internalType": "string",
          "name": "description",
          "type": "string"
        },
        {
          "internalType": "string",
          "name": "imageHash",
          "type": "string"
        },
        {
          "internalType": "uint256",
          "name": "realAmount",
          "type": "uint256"
        },
        {
          "internalType": "uint256",
          "name": "discountedAmount",
          "type": "uint256"
        },
        {
          "internalType": "address payable",
          "name": "instructor",
          "type": "address"
        }
      ],
      "stateMutability": "view",
      "type": "function"
    },
    {
      "inputs": [
        {
          "internalType": "string",
          "name": "_name",
          "type": "string"
        },
        {
          "internalType": "string",
          "name": "_provider",
          "type": "string"
        },
        {
          "internalType": "string",
          "name": "_description",
          "type": "string"
        },
        {
          "internalType": "string",
          "name": "_imageHash",
          "type": "string"
        },
        {
          "internalType": "uint256",
          "name": "_realAmount",
          "type": "uint256"
        },
        {
          "internalType": "uint256",
          "name": "_discountedAmount",
          "type": "uint256"
        }
      ],
      "name": "createCourse",
      "outputs": [],
      "stateMutability": "nonpayable",
      "type": "function"
    },
    {
      "inputs": [
        {
          "internalType": "string",
          "name": "_userId",
          "type": "string"
        },
        {
          "internalType": "uint256",
          "name": "_courseId",
          "type": "uint256"
        }
      ],
      "name": "getCertificate",
      "outputs": [
        {
          "components": [
            {
              "internalType": "bool",
              "name": "issued",
              "type": "bool"
            },
            {
              "internalType": "string",
              "name": "studentName",
              "type": "string"
            },
            {
              "internalType": "string",
              "name": "courseName",
              "type": "string"
            },
            {
              "internalType": "string",
              "name": "courseProvider",
              "type": "string"
            },
            {
              "internalType": "address",
              "name": "studentAddress",
              "type": "address"
            }
          ],
          "internalType": "struct CoursePlatform.Certificate",
          "name": "",
          "type": "tuple"
        }
      ],
      "stateMutability": "view",
      "type": "function"
    },
    {
      "inputs": [
        {
          "internalType": "uint256",
          "name": "_courseId",
          "type": "uint256"
        }
      ],
      "name": "getCourse",
      "outputs": [
        {
          "internalType": "string",
          "name": "name",
          "type": "string"
        },
        {
          "internalType": "string",
          "name": "provider",
          "type": "string"
        },
        {
          "internalType": "string",
          "name": "description",
          "type": "string"
        },
        {
          "internalType": "string",
          "name": "imageHash",
          "type": "string"
        },
        {
          "internalType": "uint256",
          "name": "realAmount",
          "type": "uint256"
        },
        {
          "internalType": "uint256",
          "name": "discountedAmount",
          "type": "uint256"
        },
        {
          "internalType": "address",
          "name": "instructor",
          "type": "address"
        }
      ],
      "stateMutability": "view",
      "type": "function"
    },
    {
      "inputs": [
        {
          "internalType": "uint256",
          "name": "_courseId",
          "type": "uint256"
        }
      ],
      "name": "getCourseVideos",
      "outputs": [
        {
          "components": [
            {
              "internalType": "string",
              "name": "videoHash",
              "type": "string"
            },
            {
              "internalType": "string",
              "name": "videoDescription",
              "type": "string"
            }
          ],
          "internalType": "struct CoursePlatform.Video[]",
          "name": "",
          "type": "tuple[]"
        }
      ],
      "stateMutability": "view",
      "type": "function"
    },
    {
      "inputs": [
        {
          "internalType": "string",
          "name": "_userId",
          "type": "string"
        },
        {
          "internalType": "uint256",
          "name": "_courseId",
          "type": "uint256"
        },
        {
          "internalType": "string",
          "name": "_studentName",
          "type": "string"
        }
      ],
      "name": "issueCertificate",
      "outputs": [],
      "stateMutability": "nonpayable",
      "type": "function"
    },
    {
      "inputs": [],
      "name": "owner",
      "outputs": [
        {
          "internalType": "address",
          "name": "",
          "type": "address"
        }
      ],
      "stateMutability": "view",
      "type": "function"
    }
  ],
  "bytecode": "0x6080604052600060045534801561001557600080fd5b5033600560006101000a81548173ffffffffffffffffffffffffffffffffffffffff021916908373ffffffffffffffffffffffffffffffffffffffff160217905550613613806100666000396000f3fe6080604052600436106100dd5760003560e01c806368f0db051161007f578063af66e63811610059578063af66e638146102d0578063c3f31a6b146102f9578063c9c093a714610336578063f3225de314610373576100dd565b806368f0db05146102245780638da5cb5b1461026157806396f979d21461028c576100dd565b8063194d73a2116100bb578063194d73a2146101775780631a0d65351461019357806352695430146101bc57806366055159146101f9576100dd565b80630b91e28d146100e25780630d3b429214610125578063155fd5e61461014e575b600080fd5b3480156100ee57600080fd5b50610109600480360381019061010491906123cf565b6103b4565b60405161011c97969594939291906124dc565b60405180910390f35b34801561013157600080fd5b5061014c600480360381019061014791906123cf565b6108b0565b005b34801561015a57600080fd5b506101756004803603810190610170919061269c565b610ae3565b005b610191600480360381019061018c91906123cf565b610efe565b005b34801561019f57600080fd5b506101ba60048036038101906101b59190612727565b611587565b005b3480156101c857600080fd5b506101e360048036038101906101de91906123cf565b61173f565b6040516101f09190612974565b60405180910390f35b34801561020557600080fd5b5061020e611974565b60405161021b9190612996565b60405180910390f35b34801561023057600080fd5b5061024b600480360381019061024691906129dd565b61197a565b6040516102589190612a38565b60405180910390f35b34801561026d57600080fd5b506102766119a9565b6040516102839190612a53565b60405180910390f35b34801561029857600080fd5b506102b360048036038101906102ae91906123cf565b6119cf565b6040516102c7989796959493929190612a8f565b60405180910390f35b3480156102dc57600080fd5b506102f760048036038101906102f29190612b29565b611c57565b005b34801561030557600080fd5b50610320600480360381019061031b91906129dd565b611e01565b60405161032d9190612a38565b60405180910390f35b34801561034257600080fd5b5061035d60048036038101906103589190612bb4565b611e30565b60405161036a9190612cb2565b60405180910390f35b34801561037f57600080fd5b5061039a60048036038101906103959190612bb4565b612120565b6040516103ab959493929190612cd4565b60405180910390f35b6060806060806000806000876000811180156103d257506004548111155b610411576040517f08c379a000000000000000000000000000000000000000000000000000000000815260040161040890612d88565b60405180910390fd5b60008060008b8152602001908152602001600020604051806101200160405290816000820154815260200160018201805461044b90612dd7565b80601f016020809104026020016040519081016040528092919081815260200182805461047790612dd7565b80156104c45780601f10610499576101008083540402835291602001916104c4565b820191906000526020600020905b8154815290600101906020018083116104a757829003601f168201915b505050505081526020016002820180546104dd90612dd7565b80601f016020809104026020016040519081016040528092919081815260200182805461050990612dd7565b80156105565780601f1061052b57610100808354040283529160200191610556565b820191906000526020600020905b81548152906001019060200180831161053957829003601f168201915b5050505050815260200160038201805461056f90612dd7565b80601f016020809104026020016040519081016040528092919081815260200182805461059b90612dd7565b80156105e85780601f106105bd576101008083540402835291602001916105e8565b820191906000526020600020905b8154815290600101906020018083116105cb57829003601f168201915b5050505050815260200160048201805461060190612dd7565b80601f016020809104026020016040519081016040528092919081815260200182805461062d90612dd7565b801561067a5780601f1061064f5761010080835404028352916020019161067a565b820191906000526020600020905b81548152906001019060200180831161065d57829003601f168201915b5050505050815260200160058201548152602001600682015481526020016007820160009054906101000a900473ffffffffffffffffffffffffffffffffffffffff1673ffffffffffffffffffffffffffffffffffffffff1673ffffffffffffffffffffffffffffffffffffffff16815260200160088201805480602002602001604051908101604052809291908181526020016000905b82821015610868578382906000526020600020906002020160405180604001604052908160008201805461074590612dd7565b80601f016020809104026020016040519081016040528092919081815260200182805461077190612dd7565b80156107be5780601f10610793576101008083540402835291602001916107be565b820191906000526020600020905b8154815290600101906020018083116107a157829003601f168201915b505050505081526020016001820180546107d790612dd7565b80601f016020809104026020016040519081016040528092919081815260200182805461080390612dd7565b80156108505780601f1061082557610100808354040283529160200191610850565b820191906000526020600020905b81548152906001019060200180831161083357829003601f168201915b50505050508152505081526020019060010190610712565b5050505081525050905080602001518160400151826060015183608001518460a001518560c001518660e0015198509850985098509850985098505050919395979092949650565b806000811180156108c357506004548111155b610902576040517f08c379a00000000000000000000000000000000000000000000000000000000081526004016108f990612d88565b60405180910390fd5b600160003373ffffffffffffffffffffffffffffffffffffffff1673ffffffffffffffffffffffffffffffffffffffff168152602001908152602001600020600083815260200190815260200160002060009054906101000a900460ff1661099f576040517f08c379a000000000000000000000000000000000000000000000000000000000815260040161099690612e54565b60405180910390fd5b600260003373ffffffffffffffffffffffffffffffffffffffff1673ffffffffffffffffffffffffffffffffffffffff168152602001908152602001600020600083815260200190815260200160002060009054906101000a900460ff1615610a3d576040517f08c379a0000000000000000000000000000000000000000000000000000000008152600401610a3490612ec0565b60405180910390fd5b6001600260003373ffffffffffffffffffffffffffffffffffffffff1673ffffffffffffffffffffffffffffffffffffffff168152602001908152602001600020600084815260200190815260200160002060006101000a81548160ff0219169083151502179055507f4b85f119a65c9ab344d9a4d007a895c9a738e08054fee095494567187c45ea863383604051610ad7929190612ee0565b60405180910390a15050565b600560009054906101000a900473ffffffffffffffffffffffffffffffffffffffff1673ffffffffffffffffffffffffffffffffffffffff163373ffffffffffffffffffffffffffffffffffffffff1614610b73576040517f08c379a0000000000000000000000000000000000000000000000000000000008152600401610b6a90612f55565b60405180910390fd5b81600081118015610b8657506004548111155b610bc5576040517f08c379a0000000000000000000000000000000000000000000000000000000008152600401610bbc90612d88565b60405180910390fd5b600260003373ffffffffffffffffffffffffffffffffffffffff1673ffffffffffffffffffffffffffffffffffffffff168152602001908152602001600020600084815260200190815260200160002060009054906101000a900460ff16610c62576040517f08c379a0000000000000000000000000000000000000000000000000000000008152600401610c5990612fe7565b60405180910390fd5b60006040518060a001604052806001151581526020018481526020016000808781526020019081526020016000206001018054610c9e90612dd7565b80601f0160208091040260200160405190810160405280929190818152602001828054610cca90612dd7565b8015610d175780601f10610cec57610100808354040283529160200191610d17565b820191906000526020600020905b815481529060010190602001808311610cfa57829003601f168201915b505050505081526020016000808781526020019081526020016000206002018054610d4190612dd7565b80601f0160208091040260200160405190810160405280929190818152602001828054610d6d90612dd7565b8015610dba5780601f10610d8f57610100808354040283529160200191610dba565b820191906000526020600020905b815481529060010190602001808311610d9d57829003601f168201915b505050505081526020013373ffffffffffffffffffffffffffffffffffffffff16815250905080600386604051610df19190613043565b9081526020016040518091039020600086815260200190815260200160002060008201518160000160006101000a81548160ff0219169083151502179055506020820151816001019081610e459190613206565b506040820151816002019081610e5b9190613206565b506060820151816003019081610e719190613206565b5060808201518160040160006101000a81548173ffffffffffffffffffffffffffffffffffffffff021916908373ffffffffffffffffffffffffffffffffffffffff1602179055509050507f47c08e6c37338768e3085d0555c0d096327cc19b8b7c3918edbd0932c942852f858585604051610eef939291906132d8565b60405180910390a15050505050565b80600081118015610f1157506004548111155b610f50576040517f08c379a0000000000000000000000000000000000000000000000000000000008152600401610f4790612d88565b60405180910390fd5b60008060008481526020019081526020016000206040518061012001604052908160008201548152602001600182018054610f8a90612dd7565b80601f0160208091040260200160405190810160405280929190818152602001828054610fb690612dd7565b80156110035780601f10610fd857610100808354040283529160200191611003565b820191906000526020600020905b815481529060010190602001808311610fe657829003601f168201915b5050505050815260200160028201805461101c90612dd7565b80601f016020809104026020016040519081016040528092919081815260200182805461104890612dd7565b80156110955780601f1061106a57610100808354040283529160200191611095565b820191906000526020600020905b81548152906001019060200180831161107857829003601f168201915b505050505081526020016003820180546110ae90612dd7565b80601f01602080910402602001604051908101604052809291908181526020018280546110da90612dd7565b80156111275780601f106110fc57610100808354040283529160200191611127565b820191906000526020600020905b81548152906001019060200180831161110a57829003601f168201915b5050505050815260200160048201805461114090612dd7565b80601f016020809104026020016040519081016040528092919081815260200182805461116c90612dd7565b80156111b95780601f1061118e576101008083540402835291602001916111b9565b820191906000526020600020905b81548152906001019060200180831161119c57829003601f168201915b5050505050815260200160058201548152602001600682015481526020016007820160009054906101000a900473ffffffffffffffffffffffffffffffffffffffff1673ffffffffffffffffffffffffffffffffffffffff1673ffffffffffffffffffffffffffffffffffffffff16815260200160088201805480602002602001604051908101604052809291908181526020016000905b828210156113a7578382906000526020600020906002020160405180604001604052908160008201805461128490612dd7565b80601f01602080910402602001604051908101604052809291908181526020018280546112b090612dd7565b80156112fd5780601f106112d2576101008083540402835291602001916112fd565b820191906000526020600020905b8154815290600101906020018083116112e057829003601f168201915b5050505050815260200160018201805461131690612dd7565b80601f016020809104026020016040519081016040528092919081815260200182805461134290612dd7565b801561138f5780601f106113645761010080835404028352916020019161138f565b820191906000526020600020905b81548152906001019060200180831161137257829003601f168201915b50505050508152505081526020019060010190611251565b505050508152505090508060c001513410156113f8576040517f08c379a00000000000000000000000000000000000000000000000000000000081526004016113ef9061338f565b60405180910390fd5b600160003373ffffffffffffffffffffffffffffffffffffffff1673ffffffffffffffffffffffffffffffffffffffff168152602001908152602001600020600084815260200190815260200160002060009054906101000a900460ff1615611496576040517f08c379a000000000000000000000000000000000000000000000000000000000815260040161148d906133fb565b60405180910390fd5b60018060003373ffffffffffffffffffffffffffffffffffffffff1673ffffffffffffffffffffffffffffffffffffffff168152602001908152602001600020600085815260200190815260200160002060006101000a81548160ff0219169083151502179055508060e0015173ffffffffffffffffffffffffffffffffffffffff166108fc349081150290604051600060405180830381858888f19350505050158015611548573d6000803e3d6000fd5b507fe5ad1c2d1ba3b171c8cd1cab50ec342a17e4c839c0562afe6328e29c7f38385e338460405161157a929190612ee0565b60405180910390a1505050565b600560009054906101000a900473ffffffffffffffffffffffffffffffffffffffff1673ffffffffffffffffffffffffffffffffffffffff163373ffffffffffffffffffffffffffffffffffffffff1614611617576040517f08c379a000000000000000000000000000000000000000000000000000000000815260040161160e90612f55565b60405180910390fd5b6004600081548092919061162a9061344a565b91905055506000806000600454815260200190815260200160002090506004548160000181905550868160010190816116639190613206565b50858160020190816116759190613206565b50848160030190816116879190613206565b50838160040190816116999190613206565b50828160050181905550818160060181905550338160070160006101000a81548173ffffffffffffffffffffffffffffffffffffffff021916908373ffffffffffffffffffffffffffffffffffffffff1602179055507f097b2611f3842984890c39e20a6418e6988576fe05ec53fe03c4857428716d266004548888888888883360405161172e989796959493929190613492565b60405180910390a150505050505050565b6060600160003373ffffffffffffffffffffffffffffffffffffffff1673ffffffffffffffffffffffffffffffffffffffff168152602001908152602001600020600083815260200190815260200160002060009054906101000a900460ff166117de576040517f08c379a00000000000000000000000000000000000000000000000000000000081526004016117d590612e54565b60405180910390fd5b600080838152602001908152602001600020600801805480602002602001604051908101604052809291908181526020016000905b82821015611969578382906000526020600020906002020160405180604001604052908160008201805461184690612dd7565b80601f016020809104026020016040519081016040528092919081815260200182805461187290612dd7565b80156118bf5780601f10611894576101008083540402835291602001916118bf565b820191906000526020600020905b8154815290600101906020018083116118a257829003601f168201915b505050505081526020016001820180546118d890612dd7565b80601f016020809104026020016040519081016040528092919081815260200182805461190490612dd7565b80156119515780601f1061192657610100808354040283529160200191611951565b820191906000526020600020905b81548152906001019060200180831161193457829003601f168201915b50505050508152505081526020019060010190611813565b505050509050919050565b60045481565b60026020528160005260406000206020528060005260406000206000915091509054906101000a900460ff1681565b600560009054906101000a900473ffffffffffffffffffffffffffffffffffffffff1681565b60006020528060005260406000206000915090508060000154908060010180546119f890612dd7565b80601f0160208091040260200160405190810160405280929190818152602001828054611a2490612dd7565b8015611a715780601f10611a4657610100808354040283529160200191611a71565b820191906000526020600020905b815481529060010190602001808311611a5457829003601f168201915b505050505090806002018054611a8690612dd7565b80601f0160208091040260200160405190810160405280929190818152602001828054611ab290612dd7565b8015611aff5780601f10611ad457610100808354040283529160200191611aff565b820191906000526020600020905b815481529060010190602001808311611ae257829003601f168201915b505050505090806003018054611b1490612dd7565b80601f0160208091040260200160405190810160405280929190818152602001828054611b4090612dd7565b8015611b8d5780601f10611b6257610100808354040283529160200191611b8d565b820191906000526020600020905b815481529060010190602001808311611b7057829003601f168201915b505050505090806004018054611ba290612dd7565b80601f0160208091040260200160405190810160405280929190818152602001828054611bce90612dd7565b8015611c1b5780601f10611bf057610100808354040283529160200191611c1b565b820191906000526020600020905b815481529060010190602001808311611bfe57829003601f168201915b5050505050908060050154908060060154908060070160009054906101000a900473ffffffffffffffffffffffffffffffffffffffff16905088565b600560009054906101000a900473ffffffffffffffffffffffffffffffffffffffff1673ffffffffffffffffffffffffffffffffffffffff163373ffffffffffffffffffffffffffffffffffffffff1614611ce7576040517f08c379a0000000000000000000000000000000000000000000000000000000008152600401611cde90612f55565b60405180910390fd5b82600081118015611cfa57506004548111155b611d39576040517f08c379a0000000000000000000000000000000000000000000000000000000008152600401611d3090612d88565b60405180910390fd5b600060405180604001604052808581526020018481525090506000808681526020019081526020016000206008018190806001815401808255809150506001900390600052602060002090600202016000909190919091506000820151816000019081611da69190613206565b506020820151816001019081611dbc9190613206565b5050507f49d2f8acf95a9936dfe33694c8265745da0a17c5bf9328f136dc528833f52c91858585604051611df29392919061352c565b60405180910390a15050505050565b60016020528160005260406000206020528060005260406000206000915091509054906101000a900460ff1681565b611e3861233e565b600383604051611e489190613043565b9081526020016040518091039020600083815260200190815260200160002060000160009054906101000a900460ff16611eb7576040517f08c379a0000000000000000000000000000000000000000000000000000000008152600401611eae906135bd565b60405180910390fd5b600383604051611ec79190613043565b908152602001604051809103902060008381526020019081526020016000206040518060a00160405290816000820160009054906101000a900460ff16151515158152602001600182018054611f1c90612dd7565b80601f0160208091040260200160405190810160405280929190818152602001828054611f4890612dd7565b8015611f955780601f10611f6a57610100808354040283529160200191611f95565b820191906000526020600020905b815481529060010190602001808311611f7857829003601f168201915b50505050508152602001600282018054611fae90612dd7565b80601f0160208091040260200160405190810160405280929190818152602001828054611fda90612dd7565b80156120275780601f10611ffc57610100808354040283529160200191612027565b820191906000526020600020905b81548152906001019060200180831161200a57829003601f168201915b5050505050815260200160038201805461204090612dd7565b80601f016020809104026020016040519081016040528092919081815260200182805461206c90612dd7565b80156120b95780601f1061208e576101008083540402835291602001916120b9565b820191906000526020600020905b81548152906001019060200180831161209c57829003601f168201915b505050505081526020016004820160009054906101000a900473ffffffffffffffffffffffffffffffffffffffff1673ffffffffffffffffffffffffffffffffffffffff1673ffffffffffffffffffffffffffffffffffffffff1681525050905092915050565b600382805160208101820180518482526020830160208501208183528095505050505050602052806000526040600020600091509150508060000160009054906101000a900460ff169080600101805461217990612dd7565b80601f01602080910402602001604051908101604052809291908181526020018280546121a590612dd7565b80156121f25780601f106121c7576101008083540402835291602001916121f2565b820191906000526020600020905b8154815290600101906020018083116121d557829003601f168201915b50505050509080600201805461220790612dd7565b80601f016020809104026020016040519081016040528092919081815260200182805461223390612dd7565b80156122805780601f1061225557610100808354040283529160200191612280565b820191906000526020600020905b81548152906001019060200180831161226357829003601f168201915b50505050509080600301805461229590612dd7565b80601f01602080910402602001604051908101604052809291908181526020018280546122c190612dd7565b801561230e5780601f106122e35761010080835404028352916020019161230e565b820191906000526020600020905b8154815290600101906020018083116122f157829003601f168201915b5050505050908060040160009054906101000a900473ffffffffffffffffffffffffffffffffffffffff16905085565b6040518060a00160405280600015158152602001606081526020016060815260200160608152602001600073ffffffffffffffffffffffffffffffffffffffff1681525090565b6000604051905090565b600080fd5b600080fd5b6000819050919050565b6123ac81612399565b81146123b757600080fd5b50565b6000813590506123c9816123a3565b92915050565b6000602082840312156123e5576123e461238f565b5b60006123f3848285016123ba565b91505092915050565b600081519050919050565b600082825260208201905092915050565b60005b8381101561243657808201518184015260208101905061241b565b60008484015250505050565b6000601f19601f8301169050919050565b600061245e826123fc565b6124688185612407565b9350612478818560208601612418565b61248181612442565b840191505092915050565b61249581612399565b82525050565b600073ffffffffffffffffffffffffffffffffffffffff82169050919050565b60006124c68261249b565b9050919050565b6124d6816124bb565b82525050565b600060e08201905081810360008301526124f6818a612453565b9050818103602083015261250a8189612453565b9050818103604083015261251e8188612453565b905081810360608301526125328187612453565b9050612541608083018661248c565b61254e60a083018561248c565b61255b60c08301846124cd565b98975050505050505050565b600080fd5b600080fd5b7f4e487b7100000000000000000000000000000000000000000000000000000000600052604160045260246000fd5b6125a982612442565b810181811067ffffffffffffffff821117156125c8576125c7612571565b5b80604052505050565b60006125db612385565b90506125e782826125a0565b919050565b600067ffffffffffffffff82111561260757612606612571565b5b61261082612442565b9050602081019050919050565b82818337600083830152505050565b600061263f61263a846125ec565b6125d1565b90508281526020810184848401111561265b5761265a61256c565b5b61266684828561261d565b509392505050565b600082601f83011261268357612682612567565b5b813561269384826020860161262c565b91505092915050565b6000806000606084860312156126b5576126b461238f565b5b600084013567ffffffffffffffff8111156126d3576126d2612394565b5b6126df8682870161266e565b93505060206126f0868287016123ba565b925050604084013567ffffffffffffffff81111561271157612710612394565b5b61271d8682870161266e565b9150509250925092565b60008060008060008060c087890312156127445761274361238f565b5b600087013567ffffffffffffffff81111561276257612761612394565b5b61276e89828a0161266e565b965050602087013567ffffffffffffffff81111561278f5761278e612394565b5b61279b89828a0161266e565b955050604087013567ffffffffffffffff8111156127bc576127bb612394565b5b6127c889828a0161266e565b945050606087013567ffffffffffffffff8111156127e9576127e8612394565b5b6127f589828a0161266e565b935050608061280689828a016123ba565b92505060a061281789828a016123ba565b9150509295509295509295565b600081519050919050565b600082825260208201905092915050565b6000819050602082019050919050565b600082825260208201905092915050565b600061286c826123fc565b6128768185612850565b9350612886818560208601612418565b61288f81612442565b840191505092915050565b600060408301600083015184820360008601526128b78282612861565b915050602083015184820360208601526128d18282612861565b9150508091505092915050565b60006128ea838361289a565b905092915050565b6000602082019050919050565b600061290a82612824565b612914818561282f565b93508360208202850161292685612840565b8060005b85811015612962578484038952815161294385826128de565b945061294e836128f2565b925060208a0199505060018101905061292a565b50829750879550505050505092915050565b6000602082019050818103600083015261298e81846128ff565b905092915050565b60006020820190506129ab600083018461248c565b92915050565b6129ba816124bb565b81146129c557600080fd5b50565b6000813590506129d7816129b1565b92915050565b600080604083850312156129f4576129f361238f565b5b6000612a02858286016129c8565b9250506020612a13858286016123ba565b9150509250929050565b60008115159050919050565b612a3281612a1d565b82525050565b6000602082019050612a4d6000830184612a29565b92915050565b6000602082019050612a6860008301846124cd565b92915050565b6000612a798261249b565b9050919050565b612a8981612a6e565b82525050565b600061010082019050612aa5600083018b61248c565b8181036020830152612ab7818a612453565b90508181036040830152612acb8189612453565b90508181036060830152612adf8188612453565b90508181036080830152612af38187612453565b9050612b0260a083018661248c565b612b0f60c083018561248c565b612b1c60e0830184612a80565b9998505050505050505050565b600080600060608486031215612b4257612b4161238f565b5b6000612b50868287016123ba565b935050602084013567ffffffffffffffff811115612b7157612b70612394565b5b612b7d8682870161266e565b925050604084013567ffffffffffffffff811115612b9e57612b9d612394565b5b612baa8682870161266e565b9150509250925092565b60008060408385031215612bcb57612bca61238f565b5b600083013567ffffffffffffffff811115612be957612be8612394565b5b612bf58582860161266e565b9250506020612c06858286016123ba565b9150509250929050565b612c1981612a1d565b82525050565b612c28816124bb565b82525050565b600060a083016000830151612c466000860182612c10565b5060208301518482036020860152612c5e8282612861565b91505060408301518482036040860152612c788282612861565b91505060608301518482036060860152612c928282612861565b9150506080830151612ca76080860182612c1f565b508091505092915050565b60006020820190508181036000830152612ccc8184612c2e565b905092915050565b600060a082019050612ce96000830188612a29565b8181036020830152612cfb8187612453565b90508181036040830152612d0f8186612453565b90508181036060830152612d238185612453565b9050612d3260808301846124cd565b9695505050505050565b7f436f7572736520646f6573206e6f742065786973740000000000000000000000600082015250565b6000612d72601583612407565b9150612d7d82612d3c565b602082019050919050565b60006020820190508181036000830152612da181612d65565b9050919050565b7f4e487b7100000000000000000000000000000000000000000000000000000000600052602260045260246000fd5b60006002820490506001821680612def57607f821691505b602082108103612e0257612e01612da8565b5b50919050565b7f596f75206e65656420746f206275792074686520636f75727365206669727374600082015250565b6000612e3e602083612407565b9150612e4982612e08565b602082019050919050565b60006020820190508181036000830152612e6d81612e31565b9050919050565b7f436f7572736520616c726561647920636f6d706c657465640000000000000000600082015250565b6000612eaa601883612407565b9150612eb582612e74565b602082019050919050565b60006020820190508181036000830152612ed981612e9d565b9050919050565b6000604082019050612ef560008301856124cd565b612f02602083018461248c565b9392505050565b7f4e6f742074686520636f6e7472616374206f776e657200000000000000000000600082015250565b6000612f3f601683612407565b9150612f4a82612f09565b602082019050919050565b60006020820190508181036000830152612f6e81612f32565b9050919050565b7f436f75727365206e6f7420636f6d706c6574656420627920746865207374756460008201527f656e740000000000000000000000000000000000000000000000000000000000602082015250565b6000612fd1602383612407565b9150612fdc82612f75565b604082019050919050565b6000602082019050818103600083015261300081612fc4565b9050919050565b600081905092915050565b600061301d826123fc565b6130278185613007565b9350613037818560208601612418565b80840191505092915050565b600061304f8284613012565b915081905092915050565b60008190508160005260206000209050919050565b60006020601f8301049050919050565b600082821b905092915050565b6000600883026130bc7fffffffffffffffffffffffffffffffffffffffffffffffffffffffffffffffff8261307f565b6130c6868361307f565b95508019841693508086168417925050509392505050565b6000819050919050565b60006131036130fe6130f984612399565b6130de565b612399565b9050919050565b6000819050919050565b61311d836130e8565b6131316131298261310a565b84845461308c565b825550505050565b600090565b613146613139565b613151818484613114565b505050565b5b818110156131755761316a60008261313e565b600181019050613157565b5050565b601f8211156131ba5761318b8161305a565b6131948461306f565b810160208510156131a3578190505b6131b76131af8561306f565b830182613156565b50505b505050565b600082821c905092915050565b60006131dd600019846008026131bf565b1980831691505092915050565b60006131f683836131cc565b9150826002028217905092915050565b61320f826123fc565b67ffffffffffffffff81111561322857613227612571565b5b6132328254612dd7565b61323d828285613179565b600060209050601f831160018114613270576000841561325e578287015190505b61326885826131ea565b8655506132d0565b601f19841661327e8661305a565b60005b828110156132a657848901518255600182019150602085019450602081019050613281565b868310156132c357848901516132bf601f8916826131cc565b8355505b6001600288020188555050505b505050505050565b600060608201905081810360008301526132f28186612453565b9050613301602083018561248c565b81810360408301526133138184612453565b9050949350505050565b7f4e6f7420656e6f7567682045544820746f20707572636861736520746865206360008201527f6f75727365000000000000000000000000000000000000000000000000000000602082015250565b6000613379602583612407565b91506133848261331d565b604082019050919050565b600060208201905081810360008301526133a88161336c565b9050919050565b7f436f7572736520616c7265616479207075726368617365640000000000000000600082015250565b60006133e5601883612407565b91506133f0826133af565b602082019050919050565b60006020820190508181036000830152613414816133d8565b9050919050565b7f4e487b7100000000000000000000000000000000000000000000000000000000600052601160045260246000fd5b600061345582612399565b91507fffffffffffffffffffffffffffffffffffffffffffffffffffffffffffffffff82036134875761348661341b565b5b600182019050919050565b6000610100820190506134a8600083018b61248c565b81810360208301526134ba818a612453565b905081810360408301526134ce8189612453565b905081810360608301526134e28188612453565b905081810360808301526134f68187612453565b905061350560a083018661248c565b61351260c083018561248c565b61351f60e08301846124cd565b9998505050505050505050565b6000606082019050613541600083018661248c565b81810360208301526135538185612453565b905081810360408301526135678184612453565b9050949350505050565b7f4e6f206365727469666963617465206973737565642079657400000000000000600082015250565b60006135a7601983612407565b91506135b282613571565b602082019050919050565b600060208201905081810360008301526135d68161359a565b905091905056fea26469706673582212209525533693ed1c6d0f93967261fb491140a60ccf193b393126ba7b617791b2aa64736f6c63430008140033",
  "linkReferences": {},
  "deployedLinkReferences": {}
}