{"contracts/udemy.sol":{"CoursePlatform":{"abi":[{"inputs":[],"stateMutability":"nonpayable","type":"constructor"},{"anonymous":false,"inputs":[{"indexed":false,"internalType":"uint256","name":"id","type":"uint256"},{"indexed":false,"internalType":"string","name":"name","type":"string"},{"indexed":false,"internalType":"string","name":"provider","type":"string"},{"indexed":false,"internalType":"uint256","name":"realAmount","type":"uint256"},{"indexed":false,"internalType":"uint256","name":"discountedAmount","type":"uint256"},{"indexed":false,"internalType":"address","name":"instructor","type":"address"}],"name":"CourseCreated","type":"event"},{"inputs":[{"internalType":"address","name":"","type":"address"}],"name":"admin","outputs":[{"internalType":"bool","name":"","type":"bool"}],"stateMutability":"view","type":"function"},{"inputs":[],"name":"courseCount","outputs":[{"internalType":"uint256","name":"","type":"uint256"}],"stateMutability":"view","type":"function"},{"inputs":[{"internalType":"uint256","name":"","type":"uint256"}],"name":"courses","outputs":[{"internalType":"uint256","name":"id","type":"uint256"},{"internalType":"string","name":"name","type":"string"},{"internalType":"string","name":"provider","type":"string"},{"internalType":"uint256","name":"realAmount","type":"uint256"},{"internalType":"uint256","name":"discountedAmount","type":"uint256"},{"internalType":"address payable","name":"instructor","type":"address"}],"stateMutability":"view","type":"function"},{"inputs":[{"internalType":"string","name":"_name","type":"string"},{"internalType":"string","name":"_provider","type":"string"},{"internalType":"uint256","name":"_realAmount","type":"uint256"},{"internalType":"uint256","name":"_discountedAmount","type":"uint256"}],"name":"createCourse","outputs":[],"stateMutability":"nonpayable","type":"function"},{"inputs":[],"name":"owner","outputs":[{"internalType":"address","name":"","type":"address"}],"stateMutability":"view","type":"function"}],"evm":{"bytecode":{"linkReferences":{},"object":"6080604052600060015534801561001557600080fd5b5033600260006101000a81548173ffffffffffffffffffffffffffffffffffffffff021916908373ffffffffffffffffffffffffffffffffffffffff1602179055506001600360003373ffffffffffffffffffffffffffffffffffffffff1673ffffffffffffffffffffffffffffffffffffffff16815260200190815260200160002060006101000a81548160ff021916908315150217905550610d91806100be6000396000f3fe608060405234801561001057600080fd5b50600436106100575760003560e01c806363a846f81461005c578063660551591461008c5780638da5cb5b146100aa57806396f979d2146100c8578063d4c4ecfa146100fd575b600080fd5b6100766004803603810190610071919061051d565b610119565b6040516100839190610565565b60405180910390f35b610094610139565b6040516100a19190610599565b60405180910390f35b6100b261013f565b6040516100bf91906105c3565b60405180910390f35b6100e260048036038101906100dd919061060a565b610165565b6040516100f4969594939291906106e8565b60405180910390f35b6101176004803603810190610112919061088c565b6102d1565b005b60036020528060005260406000206000915054906101000a900460ff1681565b60015481565b600260009054906101000a900473ffffffffffffffffffffffffffffffffffffffff1681565b600060205280600052604060002060009150905080600001549080600101805461018e9061095a565b80601f01602080910402602001604051908101604052809291908181526020018280546101ba9061095a565b80156102075780601f106101dc57610100808354040283529160200191610207565b820191906000526020600020905b8154815290600101906020018083116101ea57829003601f168201915b50505050509080600201805461021c9061095a565b80601f01602080910402602001604051908101604052809291908181526020018280546102489061095a565b80156102955780601f1061026a57610100808354040283529160200191610295565b820191906000526020600020905b81548152906001019060200180831161027857829003601f168201915b5050505050908060030154908060040154908060050160009054906101000a900473ffffffffffffffffffffffffffffffffffffffff16905086565b600360003373ffffffffffffffffffffffffffffffffffffffff1673ffffffffffffffffffffffffffffffffffffffff16815260200190815260200160002060009054906101000a900460ff1661035d576040517f08c379a0000000000000000000000000000000000000000000000000000000008152600401610354906109d7565b60405180910390fd5b6001600081548092919061037090610a26565b91905055506040518060c0016040528060015481526020018581526020018481526020018381526020018281526020013373ffffffffffffffffffffffffffffffffffffffff1681525060008060015481526020019081526020016000206000820151816000015560208201518160010190816103ed9190610c1a565b5060408201518160020190816104039190610c1a565b50606082015181600301556080820151816004015560a08201518160050160006101000a81548173ffffffffffffffffffffffffffffffffffffffff021916908373ffffffffffffffffffffffffffffffffffffffff1602179055509050507f79d0754f33b1a58ea0c3117cd19660228e4b8eea1598597d9e4c59b136813bd8600154858585853360405161049d96959493929190610cec565b60405180910390a150505050565b6000604051905090565b600080fd5b600080fd5b600073ffffffffffffffffffffffffffffffffffffffff82169050919050565b60006104ea826104bf565b9050919050565b6104fa816104df565b811461050557600080fd5b50565b600081359050610517816104f1565b92915050565b600060208284031215610533576105326104b5565b5b600061054184828501610508565b91505092915050565b60008115159050919050565b61055f8161054a565b82525050565b600060208201905061057a6000830184610556565b92915050565b6000819050919050565b61059381610580565b82525050565b60006020820190506105ae600083018461058a565b92915050565b6105bd816104df565b82525050565b60006020820190506105d860008301846105b4565b92915050565b6105e781610580565b81146105f257600080fd5b50565b600081359050610604816105de565b92915050565b6000602082840312156106205761061f6104b5565b5b600061062e848285016105f5565b91505092915050565b600081519050919050565b600082825260208201905092915050565b60005b83811015610671578082015181840152602081019050610656565b60008484015250505050565b6000601f19601f8301169050919050565b600061069982610637565b6106a38185610642565b93506106b3818560208601610653565b6106bc8161067d565b840191505092915050565b60006106d2826104bf565b9050919050565b6106e2816106c7565b82525050565b600060c0820190506106fd600083018961058a565b818103602083015261070f818861068e565b90508181036040830152610723818761068e565b9050610732606083018661058a565b61073f608083018561058a565b61074c60a08301846106d9565b979650505050505050565b600080fd5b600080fd5b7f4e487b7100000000000000000000000000000000000000000000000000000000600052604160045260246000fd5b6107998261067d565b810181811067ffffffffffffffff821117156107b8576107b7610761565b5b80604052505050565b60006107cb6104ab565b90506107d78282610790565b919050565b600067ffffffffffffffff8211156107f7576107f6610761565b5b6108008261067d565b9050602081019050919050565b82818337600083830152505050565b600061082f61082a846107dc565b6107c1565b90508281526020810184848401111561084b5761084a61075c565b5b61085684828561080d565b509392505050565b600082601f83011261087357610872610757565b5b813561088384826020860161081c565b91505092915050565b600080600080608085870312156108a6576108a56104b5565b5b600085013567ffffffffffffffff8111156108c4576108c36104ba565b5b6108d08782880161085e565b945050602085013567ffffffffffffffff8111156108f1576108f06104ba565b5b6108fd8782880161085e565b935050604061090e878288016105f5565b925050606061091f878288016105f5565b91505092959194509250565b7f4e487b7100000000000000000000000000000000000000000000000000000000600052602260045260246000fd5b6000600282049050600182168061097257607f821691505b6020821081036109855761098461092b565b5b50919050565b7f4e6f7420616e2061646d696e0000000000000000000000000000000000000000600082015250565b60006109c1600c83610642565b91506109cc8261098b565b602082019050919050565b600060208201905081810360008301526109f0816109b4565b9050919050565b7f4e487b7100000000000000000000000000000000000000000000000000000000600052601160045260246000fd5b6000610a3182610580565b91507fffffffffffffffffffffffffffffffffffffffffffffffffffffffffffffffff8203610a6357610a626109f7565b5b600182019050919050565b60008190508160005260206000209050919050565b60006020601f8301049050919050565b600082821b905092915050565b600060088302610ad07fffffffffffffffffffffffffffffffffffffffffffffffffffffffffffffffff82610a93565b610ada8683610a93565b95508019841693508086168417925050509392505050565b6000819050919050565b6000610b17610b12610b0d84610580565b610af2565b610580565b9050919050565b6000819050919050565b610b3183610afc565b610b45610b3d82610b1e565b848454610aa0565b825550505050565b600090565b610b5a610b4d565b610b65818484610b28565b505050565b5b81811015610b8957610b7e600082610b52565b600181019050610b6b565b5050565b601f821115610bce57610b9f81610a6e565b610ba884610a83565b81016020851015610bb7578190505b610bcb610bc385610a83565b830182610b6a565b50505b505050565b600082821c905092915050565b6000610bf160001984600802610bd3565b1980831691505092915050565b6000610c0a8383610be0565b9150826002028217905092915050565b610c2382610637565b67ffffffffffffffff811115610c3c57610c3b610761565b5b610c46825461095a565b610c51828285610b8d565b600060209050601f831160018114610c845760008415610c72578287015190505b610c7c8582610bfe565b865550610ce4565b601f198416610c9286610a6e565b60005b82811015610cba57848901518255600182019150602085019450602081019050610c95565b86831015610cd75784890151610cd3601f891682610be0565b8355505b6001600288020188555050505b505050505050565b600060c082019050610d01600083018961058a565b8181036020830152610d13818861068e565b90508181036040830152610d27818761068e565b9050610d36606083018661058a565b610d43608083018561058a565b610d5060a08301846105b4565b97965050505050505056fea2646970667358221220f0e6896a66a6b12c1ff28038447a8509b5e553f37450f838624c131ca8af350764736f6c63430008140033","opcodes":"PUSH1 0x80 PUSH1 0x40 MSTORE PUSH1 0x0 PUSH1 0x1 SSTORE CALLVALUE DUP1 ISZERO PUSH2 0x15 JUMPI PUSH1 0x0 DUP1 REVERT JUMPDEST POP CALLER PUSH1 0x2 PUSH1 0x0 PUSH2 0x100 EXP DUP2 SLOAD DUP2 PUSH20 0xFFFFFFFFFFFFFFFFFFFFFFFFFFFFFFFFFFFFFFFF MUL NOT AND SWAP1 DUP4 PUSH20 0xFFFFFFFFFFFFFFFFFFFFFFFFFFFFFFFFFFFFFFFF AND MUL OR SWAP1 SSTORE POP PUSH1 0x1 PUSH1 0x3 PUSH1 0x0 CALLER PUSH20 0xFFFFFFFFFFFFFFFFFFFFFFFFFFFFFFFFFFFFFFFF AND PUSH20 0xFFFFFFFFFFFFFFFFFFFFFFFFFFFFFFFFFFFFFFFF AND DUP2 MSTORE PUSH1 0x20 ADD SWAP1 DUP2 MSTORE PUSH1 0x20 ADD PUSH1 0x0 KECCAK256 PUSH1 0x0 PUSH2 0x100 EXP DUP2 SLOAD DUP2 PUSH1 0xFF MUL NOT AND SWAP1 DUP4 ISZERO ISZERO MUL OR SWAP1 SSTORE POP PUSH2 0xD91 DUP1 PUSH2 0xBE PUSH1 0x0 CODECOPY PUSH1 0x0 RETURN INVALID PUSH1 0x80 PUSH1 0x40 MSTORE CALLVALUE DUP1 ISZERO PUSH2 0x10 JUMPI PUSH1 0x0 DUP1 REVERT JUMPDEST POP PUSH1 0x4 CALLDATASIZE LT PUSH2 0x57 JUMPI PUSH1 0x0 CALLDATALOAD PUSH1 0xE0 SHR DUP1 PUSH4 0x63A846F8 EQ PUSH2 0x5C JUMPI DUP1 PUSH4 0x66055159 EQ PUSH2 0x8C JUMPI DUP1 PUSH4 0x8DA5CB5B EQ PUSH2 0xAA JUMPI DUP1 PUSH4 0x96F979D2 EQ PUSH2 0xC8 JUMPI DUP1 PUSH4 0xD4C4ECFA EQ PUSH2 0xFD JUMPI JUMPDEST PUSH1 0x0 DUP1 REVERT JUMPDEST PUSH2 0x76 PUSH1 0x4 DUP1 CALLDATASIZE SUB DUP2 ADD SWAP1 PUSH2 0x71 SWAP2 SWAP1 PUSH2 0x51D JUMP JUMPDEST PUSH2 0x119 JUMP JUMPDEST PUSH1 0x40 MLOAD PUSH2 0x83 SWAP2 SWAP1 PUSH2 0x565 JUMP JUMPDEST PUSH1 0x40 MLOAD DUP1 SWAP2 SUB SWAP1 RETURN JUMPDEST PUSH2 0x94 PUSH2 0x139 JUMP JUMPDEST PUSH1 0x40 MLOAD PUSH2 0xA1 SWAP2 SWAP1 PUSH2 0x599 JUMP JUMPDEST PUSH1 0x40 MLOAD DUP1 SWAP2 SUB SWAP1 RETURN JUMPDEST PUSH2 0xB2 PUSH2 0x13F JUMP JUMPDEST PUSH1 0x40 MLOAD PUSH2 0xBF SWAP2 SWAP1 PUSH2 0x5C3 JUMP JUMPDEST PUSH1 0x40 MLOAD DUP1 SWAP2 SUB SWAP1 RETURN JUMPDEST PUSH2 0xE2 PUSH1 0x4 DUP1 CALLDATASIZE SUB DUP2 ADD SWAP1 PUSH2 0xDD SWAP2 SWAP1 PUSH2 0x60A JUMP JUMPDEST PUSH2 0x165 JUMP JUMPDEST PUSH1 0x40 MLOAD PUSH2 0xF4 SWAP7 SWAP6 SWAP5 SWAP4 SWAP3 SWAP2 SWAP1 PUSH2 0x6E8 JUMP JUMPDEST PUSH1 0x40 MLOAD DUP1 SWAP2 SUB SWAP1 RETURN JUMPDEST PUSH2 0x117 PUSH1 0x4 DUP1 CALLDATASIZE SUB DUP2 ADD SWAP1 PUSH2 0x112 SWAP2 SWAP1 PUSH2 0x88C JUMP JUMPDEST PUSH2 0x2D1 JUMP JUMPDEST STOP JUMPDEST PUSH1 0x3 PUSH1 0x20 MSTORE DUP1 PUSH1 0x0 MSTORE PUSH1 0x40 PUSH1 0x0 KECCAK256 PUSH1 0x0 SWAP2 POP SLOAD SWAP1 PUSH2 0x100 EXP SWAP1 DIV PUSH1 0xFF AND DUP2 JUMP JUMPDEST PUSH1 0x1 SLOAD DUP2 JUMP JUMPDEST PUSH1 0x2 PUSH1 0x0 SWAP1 SLOAD SWAP1 PUSH2 0x100 EXP SWAP1 DIV PUSH20 0xFFFFFFFFFFFFFFFFFFFFFFFFFFFFFFFFFFFFFFFF AND DUP2 JUMP JUMPDEST PUSH1 0x0 PUSH1 0x20 MSTORE DUP1 PUSH1 0x0 MSTORE PUSH1 0x40 PUSH1 0x0 KECCAK256 PUSH1 0x0 SWAP2 POP SWAP1 POP DUP1 PUSH1 0x0 ADD SLOAD SWAP1 DUP1 PUSH1 0x1 ADD DUP1 SLOAD PUSH2 0x18E SWAP1 PUSH2 0x95A JUMP JUMPDEST DUP1 PUSH1 0x1F ADD PUSH1 0x20 DUP1 SWAP2 DIV MUL PUSH1 0x20 ADD PUSH1 0x40 MLOAD SWAP1 DUP2 ADD PUSH1 0x40 MSTORE DUP1 SWAP3 SWAP2 SWAP1 DUP2 DUP2 MSTORE PUSH1 0x20 ADD DUP3 DUP1 SLOAD PUSH2 0x1BA SWAP1 PUSH2 0x95A JUMP JUMPDEST DUP1 ISZERO PUSH2 0x207 JUMPI DUP1 PUSH1 0x1F LT PUSH2 0x1DC JUMPI PUSH2 0x100 DUP1 DUP4 SLOAD DIV MUL DUP4 MSTORE SWAP2 PUSH1 0x20 ADD SWAP2 PUSH2 0x207 JUMP JUMPDEST DUP3 ADD SWAP2 SWAP1 PUSH1 0x0 MSTORE PUSH1 0x20 PUSH1 0x0 KECCAK256 SWAP1 JUMPDEST DUP2 SLOAD DUP2 MSTORE SWAP1 PUSH1 0x1 ADD SWAP1 PUSH1 0x20 ADD DUP1 DUP4 GT PUSH2 0x1EA JUMPI DUP3 SWAP1 SUB PUSH1 0x1F AND DUP3 ADD SWAP2 JUMPDEST POP POP POP POP POP SWAP1 DUP1 PUSH1 0x2 ADD DUP1 SLOAD PUSH2 0x21C SWAP1 PUSH2 0x95A JUMP JUMPDEST DUP1 PUSH1 0x1F ADD PUSH1 0x20 DUP1 SWAP2 DIV MUL PUSH1 0x20 ADD PUSH1 0x40 MLOAD SWAP1 DUP2 ADD PUSH1 0x40 MSTORE DUP1 SWAP3 SWAP2 SWAP1 DUP2 DUP2 MSTORE PUSH1 0x20 ADD DUP3 DUP1 SLOAD PUSH2 0x248 SWAP1 PUSH2 0x95A JUMP JUMPDEST DUP1 ISZERO PUSH2 0x295 JUMPI DUP1 PUSH1 0x1F LT PUSH2 0x26A JUMPI PUSH2 0x100 DUP1 DUP4 SLOAD DIV MUL DUP4 MSTORE SWAP2 PUSH1 0x20 ADD SWAP2 PUSH2 0x295 JUMP JUMPDEST DUP3 ADD SWAP2 SWAP1 PUSH1 0x0 MSTORE PUSH1 0x20 PUSH1 0x0 KECCAK256 SWAP1 JUMPDEST DUP2 SLOAD DUP2 MSTORE SWAP1 PUSH1 0x1 ADD SWAP1 PUSH1 0x20 ADD DUP1 DUP4 GT PUSH2 0x278 JUMPI DUP3 SWAP1 SUB PUSH1 0x1F AND DUP3 ADD SWAP2 JUMPDEST POP POP POP POP POP SWAP1 DUP1 PUSH1 0x3 ADD SLOAD SWAP1 DUP1 PUSH1 0x4 ADD SLOAD SWAP1 DUP1 PUSH1 0x5 ADD PUSH1 0x0 SWAP1 SLOAD SWAP1 PUSH2 0x100 EXP SWAP1 DIV PUSH20 0xFFFFFFFFFFFFFFFFFFFFFFFFFFFFFFFFFFFFFFFF AND SWAP1 POP DUP7 JUMP JUMPDEST PUSH1 0x3 PUSH1 0x0 CALLER PUSH20 0xFFFFFFFFFFFFFFFFFFFFFFFFFFFFFFFFFFFFFFFF AND PUSH20 0xFFFFFFFFFFFFFFFFFFFFFFFFFFFFFFFFFFFFFFFF AND DUP2 MSTORE PUSH1 0x20 ADD SWAP1 DUP2 MSTORE PUSH1 0x20 ADD PUSH1 0x0 KECCAK256 PUSH1 0x0 SWAP1 SLOAD SWAP1 PUSH2 0x100 EXP SWAP1 DIV PUSH1 0xFF AND PUSH2 0x35D JUMPI PUSH1 0x40 MLOAD PUSH32 0x8C379A000000000000000000000000000000000000000000000000000000000 DUP2 MSTORE PUSH1 0x4 ADD PUSH2 0x354 SWAP1 PUSH2 0x9D7 JUMP JUMPDEST PUSH1 0x40 MLOAD DUP1 SWAP2 SUB SWAP1 REVERT JUMPDEST PUSH1 0x1 PUSH1 0x0 DUP2 SLOAD DUP1 SWAP3 SWAP2 SWAP1 PUSH2 0x370 SWAP1 PUSH2 0xA26 JUMP JUMPDEST SWAP2 SWAP1 POP SSTORE POP PUSH1 0x40 MLOAD DUP1 PUSH1 0xC0 ADD PUSH1 0x40 MSTORE DUP1 PUSH1 0x1 SLOAD DUP2 MSTORE PUSH1 0x20 ADD DUP6 DUP2 MSTORE PUSH1 0x20 ADD DUP5 DUP2 MSTORE PUSH1 0x20 ADD DUP4 DUP2 MSTORE PUSH1 0x20 ADD DUP3 DUP2 MSTORE PUSH1 0x20 ADD CALLER PUSH20 0xFFFFFFFFFFFFFFFFFFFFFFFFFFFFFFFFFFFFFFFF AND DUP2 MSTORE POP PUSH1 0x0 DUP1 PUSH1 0x1 SLOAD DUP2 MSTORE PUSH1 0x20 ADD SWAP1 DUP2 MSTORE PUSH1 0x20 ADD PUSH1 0x0 KECCAK256 PUSH1 0x0 DUP3 ADD MLOAD DUP2 PUSH1 0x0 ADD SSTORE PUSH1 0x20 DUP3 ADD MLOAD DUP2 PUSH1 0x1 ADD SWAP1 DUP2 PUSH2 0x3ED SWAP2 SWAP1 PUSH2 0xC1A JUMP JUMPDEST POP PUSH1 0x40 DUP3 ADD MLOAD DUP2 PUSH1 0x2 ADD SWAP1 DUP2 PUSH2 0x403 SWAP2 SWAP1 PUSH2 0xC1A JUMP JUMPDEST POP PUSH1 0x60 DUP3 ADD MLOAD DUP2 PUSH1 0x3 ADD SSTORE PUSH1 0x80 DUP3 ADD MLOAD DUP2 PUSH1 0x4 ADD SSTORE PUSH1 0xA0 DUP3 ADD MLOAD DUP2 PUSH1 0x5 ADD PUSH1 0x0 PUSH2 0x100 EXP DUP2 SLOAD DUP2 PUSH20 0xFFFFFFFFFFFFFFFFFFFFFFFFFFFFFFFFFFFFFFFF MUL NOT AND SWAP1 DUP4 PUSH20 0xFFFFFFFFFFFFFFFFFFFFFFFFFFFFFFFFFFFFFFFF AND MUL OR SWAP1 SSTORE POP SWAP1 POP POP PUSH32 0x79D0754F33B1A58EA0C3117CD19660228E4B8EEA1598597D9E4C59B136813BD8 PUSH1 0x1 SLOAD DUP6 DUP6 DUP6 DUP6 CALLER PUSH1 0x40 MLOAD PUSH2 0x49D SWAP7 SWAP6 SWAP5 SWAP4 SWAP3 SWAP2 SWAP1 PUSH2 0xCEC JUMP JUMPDEST PUSH1 0x40 MLOAD DUP1 SWAP2 SUB SWAP1 LOG1 POP POP POP POP JUMP JUMPDEST PUSH1 0x0 PUSH1 0x40 MLOAD SWAP1 POP SWAP1 JUMP JUMPDEST PUSH1 0x0 DUP1 REVERT JUMPDEST PUSH1 0x0 DUP1 REVERT JUMPDEST PUSH1 0x0 PUSH20 0xFFFFFFFFFFFFFFFFFFFFFFFFFFFFFFFFFFFFFFFF DUP3 AND SWAP1 POP SWAP2 SWAP1 POP JUMP JUMPDEST PUSH1 0x0 PUSH2 0x4EA DUP3 PUSH2 0x4BF JUMP JUMPDEST SWAP1 POP SWAP2 SWAP1 POP JUMP JUMPDEST PUSH2 0x4FA DUP2 PUSH2 0x4DF JUMP JUMPDEST DUP2 EQ PUSH2 0x505 JUMPI PUSH1 0x0 DUP1 REVERT JUMPDEST POP JUMP JUMPDEST PUSH1 0x0 DUP2 CALLDATALOAD SWAP1 POP PUSH2 0x517 DUP2 PUSH2 0x4F1 JUMP JUMPDEST SWAP3 SWAP2 POP POP JUMP JUMPDEST PUSH1 0x0 PUSH1 0x20 DUP3 DUP5 SUB SLT ISZERO PUSH2 0x533 JUMPI PUSH2 0x532 PUSH2 0x4B5 JUMP JUMPDEST JUMPDEST PUSH1 0x0 PUSH2 0x541 DUP5 DUP3 DUP6 ADD PUSH2 0x508 JUMP JUMPDEST SWAP2 POP POP SWAP3 SWAP2 POP POP JUMP JUMPDEST PUSH1 0x0 DUP2 ISZERO ISZERO SWAP1 POP SWAP2 SWAP1 POP JUMP JUMPDEST PUSH2 0x55F DUP2 PUSH2 0x54A JUMP JUMPDEST DUP3 MSTORE POP POP JUMP JUMPDEST PUSH1 0x0 PUSH1 0x20 DUP3 ADD SWAP1 POP PUSH2 0x57A PUSH1 0x0 DUP4 ADD DUP5 PUSH2 0x556 JUMP JUMPDEST SWAP3 SWAP2 POP POP JUMP JUMPDEST PUSH1 0x0 DUP2 SWAP1 POP SWAP2 SWAP1 POP JUMP JUMPDEST PUSH2 0x593 DUP2 PUSH2 0x580 JUMP JUMPDEST DUP3 MSTORE POP POP JUMP JUMPDEST PUSH1 0x0 PUSH1 0x20 DUP3 ADD SWAP1 POP PUSH2 0x5AE PUSH1 0x0 DUP4 ADD DUP5 PUSH2 0x58A JUMP JUMPDEST SWAP3 SWAP2 POP POP JUMP JUMPDEST PUSH2 0x5BD DUP2 PUSH2 0x4DF JUMP JUMPDEST DUP3 MSTORE POP POP JUMP JUMPDEST PUSH1 0x0 PUSH1 0x20 DUP3 ADD SWAP1 POP PUSH2 0x5D8 PUSH1 0x0 DUP4 ADD DUP5 PUSH2 0x5B4 JUMP JUMPDEST SWAP3 SWAP2 POP POP JUMP JUMPDEST PUSH2 0x5E7 DUP2 PUSH2 0x580 JUMP JUMPDEST DUP2 EQ PUSH2 0x5F2 JUMPI PUSH1 0x0 DUP1 REVERT JUMPDEST POP JUMP JUMPDEST PUSH1 0x0 DUP2 CALLDATALOAD SWAP1 POP PUSH2 0x604 DUP2 PUSH2 0x5DE JUMP JUMPDEST SWAP3 SWAP2 POP POP JUMP JUMPDEST PUSH1 0x0 PUSH1 0x20 DUP3 DUP5 SUB SLT ISZERO PUSH2 0x620 JUMPI PUSH2 0x61F PUSH2 0x4B5 JUMP JUMPDEST JUMPDEST PUSH1 0x0 PUSH2 0x62E DUP5 DUP3 DUP6 ADD PUSH2 0x5F5 JUMP JUMPDEST SWAP2 POP POP SWAP3 SWAP2 POP POP JUMP JUMPDEST PUSH1 0x0 DUP2 MLOAD SWAP1 POP SWAP2 SWAP1 POP JUMP JUMPDEST PUSH1 0x0 DUP3 DUP3 MSTORE PUSH1 0x20 DUP3 ADD SWAP1 POP SWAP3 SWAP2 POP POP JUMP JUMPDEST PUSH1 0x0 JUMPDEST DUP4 DUP2 LT ISZERO PUSH2 0x671 JUMPI DUP1 DUP3 ADD MLOAD DUP2 DUP5 ADD MSTORE PUSH1 0x20 DUP2 ADD SWAP1 POP PUSH2 0x656 JUMP JUMPDEST PUSH1 0x0 DUP5 DUP5 ADD MSTORE POP POP POP POP JUMP JUMPDEST PUSH1 0x0 PUSH1 0x1F NOT PUSH1 0x1F DUP4 ADD AND SWAP1 POP SWAP2 SWAP1 POP JUMP JUMPDEST PUSH1 0x0 PUSH2 0x699 DUP3 PUSH2 0x637 JUMP JUMPDEST PUSH2 0x6A3 DUP2 DUP6 PUSH2 0x642 JUMP JUMPDEST SWAP4 POP PUSH2 0x6B3 DUP2 DUP6 PUSH1 0x20 DUP7 ADD PUSH2 0x653 JUMP JUMPDEST PUSH2 0x6BC DUP2 PUSH2 0x67D JUMP JUMPDEST DUP5 ADD SWAP2 POP POP SWAP3 SWAP2 POP POP JUMP JUMPDEST PUSH1 0x0 PUSH2 0x6D2 DUP3 PUSH2 0x4BF JUMP JUMPDEST SWAP1 POP SWAP2 SWAP1 POP JUMP JUMPDEST PUSH2 0x6E2 DUP2 PUSH2 0x6C7 JUMP JUMPDEST DUP3 MSTORE POP POP JUMP JUMPDEST PUSH1 0x0 PUSH1 0xC0 DUP3 ADD SWAP1 POP PUSH2 0x6FD PUSH1 0x0 DUP4 ADD DUP10 PUSH2 0x58A JUMP JUMPDEST DUP2 DUP2 SUB PUSH1 0x20 DUP4 ADD MSTORE PUSH2 0x70F DUP2 DUP9 PUSH2 0x68E JUMP JUMPDEST SWAP1 POP DUP2 DUP2 SUB PUSH1 0x40 DUP4 ADD MSTORE PUSH2 0x723 DUP2 DUP8 PUSH2 0x68E JUMP JUMPDEST SWAP1 POP PUSH2 0x732 PUSH1 0x60 DUP4 ADD DUP7 PUSH2 0x58A JUMP JUMPDEST PUSH2 0x73F PUSH1 0x80 DUP4 ADD DUP6 PUSH2 0x58A JUMP JUMPDEST PUSH2 0x74C PUSH1 0xA0 DUP4 ADD DUP5 PUSH2 0x6D9 JUMP JUMPDEST SWAP8 SWAP7 POP POP POP POP POP POP POP JUMP JUMPDEST PUSH1 0x0 DUP1 REVERT JUMPDEST PUSH1 0x0 DUP1 REVERT JUMPDEST PUSH32 0x4E487B7100000000000000000000000000000000000000000000000000000000 PUSH1 0x0 MSTORE PUSH1 0x41 PUSH1 0x4 MSTORE PUSH1 0x24 PUSH1 0x0 REVERT JUMPDEST PUSH2 0x799 DUP3 PUSH2 0x67D JUMP JUMPDEST DUP2 ADD DUP2 DUP2 LT PUSH8 0xFFFFFFFFFFFFFFFF DUP3 GT OR ISZERO PUSH2 0x7B8 JUMPI PUSH2 0x7B7 PUSH2 0x761 JUMP JUMPDEST JUMPDEST DUP1 PUSH1 0x40 MSTORE POP POP POP JUMP JUMPDEST PUSH1 0x0 PUSH2 0x7CB PUSH2 0x4AB JUMP JUMPDEST SWAP1 POP PUSH2 0x7D7 DUP3 DUP3 PUSH2 0x790 JUMP JUMPDEST SWAP2 SWAP1 POP JUMP JUMPDEST PUSH1 0x0 PUSH8 0xFFFFFFFFFFFFFFFF DUP3 GT ISZERO PUSH2 0x7F7 JUMPI PUSH2 0x7F6 PUSH2 0x761 JUMP JUMPDEST JUMPDEST PUSH2 0x800 DUP3 PUSH2 0x67D JUMP JUMPDEST SWAP1 POP PUSH1 0x20 DUP2 ADD SWAP1 POP SWAP2 SWAP1 POP JUMP JUMPDEST DUP3 DUP2 DUP4 CALLDATACOPY PUSH1 0x0 DUP4 DUP4 ADD MSTORE POP POP POP JUMP JUMPDEST PUSH1 0x0 PUSH2 0x82F PUSH2 0x82A DUP5 PUSH2 0x7DC JUMP JUMPDEST PUSH2 0x7C1 JUMP JUMPDEST SWAP1 POP DUP3 DUP2 MSTORE PUSH1 0x20 DUP2 ADD DUP5 DUP5 DUP5 ADD GT ISZERO PUSH2 0x84B JUMPI PUSH2 0x84A PUSH2 0x75C JUMP JUMPDEST JUMPDEST PUSH2 0x856 DUP5 DUP3 DUP6 PUSH2 0x80D JUMP JUMPDEST POP SWAP4 SWAP3 POP POP POP JUMP JUMPDEST PUSH1 0x0 DUP3 PUSH1 0x1F DUP4 ADD SLT PUSH2 0x873 JUMPI PUSH2 0x872 PUSH2 0x757 JUMP JUMPDEST JUMPDEST DUP2 CALLDATALOAD PUSH2 0x883 DUP5 DUP3 PUSH1 0x20 DUP7 ADD PUSH2 0x81C JUMP JUMPDEST SWAP2 POP POP SWAP3 SWAP2 POP POP JUMP JUMPDEST PUSH1 0x0 DUP1 PUSH1 0x0 DUP1 PUSH1 0x80 DUP6 DUP8 SUB SLT ISZERO PUSH2 0x8A6 JUMPI PUSH2 0x8A5 PUSH2 0x4B5 JUMP JUMPDEST JUMPDEST PUSH1 0x0 DUP6 ADD CALLDATALOAD PUSH8 0xFFFFFFFFFFFFFFFF DUP2 GT ISZERO PUSH2 0x8C4 JUMPI PUSH2 0x8C3 PUSH2 0x4BA JUMP JUMPDEST JUMPDEST PUSH2 0x8D0 DUP8 DUP3 DUP9 ADD PUSH2 0x85E JUMP JUMPDEST SWAP5 POP POP PUSH1 0x20 DUP6 ADD CALLDATALOAD PUSH8 0xFFFFFFFFFFFFFFFF DUP2 GT ISZERO PUSH2 0x8F1 JUMPI PUSH2 0x8F0 PUSH2 0x4BA JUMP JUMPDEST JUMPDEST PUSH2 0x8FD DUP8 DUP3 DUP9 ADD PUSH2 0x85E JUMP JUMPDEST SWAP4 POP POP PUSH1 0x40 PUSH2 0x90E DUP8 DUP3 DUP9 ADD PUSH2 0x5F5 JUMP JUMPDEST SWAP3 POP POP PUSH1 0x60 PUSH2 0x91F DUP8 DUP3 DUP9 ADD PUSH2 0x5F5 JUMP JUMPDEST SWAP2 POP POP SWAP3 SWAP6 SWAP2 SWAP5 POP SWAP3 POP JUMP JUMPDEST PUSH32 0x4E487B7100000000000000000000000000000000000000000000000000000000 PUSH1 0x0 MSTORE PUSH1 0x22 PUSH1 0x4 MSTORE PUSH1 0x24 PUSH1 0x0 REVERT JUMPDEST PUSH1 0x0 PUSH1 0x2 DUP3 DIV SWAP1 POP PUSH1 0x1 DUP3 AND DUP1 PUSH2 0x972 JUMPI PUSH1 0x7F DUP3 AND SWAP2 POP JUMPDEST PUSH1 0x20 DUP3 LT DUP2 SUB PUSH2 0x985 JUMPI PUSH2 0x984 PUSH2 0x92B JUMP JUMPDEST JUMPDEST POP SWAP2 SWAP1 POP JUMP JUMPDEST PUSH32 0x4E6F7420616E2061646D696E0000000000000000000000000000000000000000 PUSH1 0x0 DUP3 ADD MSTORE POP JUMP JUMPDEST PUSH1 0x0 PUSH2 0x9C1 PUSH1 0xC DUP4 PUSH2 0x642 JUMP JUMPDEST SWAP2 POP PUSH2 0x9CC DUP3 PUSH2 0x98B JUMP JUMPDEST PUSH1 0x20 DUP3 ADD SWAP1 POP SWAP2 SWAP1 POP JUMP JUMPDEST PUSH1 0x0 PUSH1 0x20 DUP3 ADD SWAP1 POP DUP2 DUP2 SUB PUSH1 0x0 DUP4 ADD MSTORE PUSH2 0x9F0 DUP2 PUSH2 0x9B4 JUMP JUMPDEST SWAP1 POP SWAP2 SWAP1 POP JUMP JUMPDEST PUSH32 0x4E487B7100000000000000000000000000000000000000000000000000000000 PUSH1 0x0 MSTORE PUSH1 0x11 PUSH1 0x4 MSTORE PUSH1 0x24 PUSH1 0x0 REVERT JUMPDEST PUSH1 0x0 PUSH2 0xA31 DUP3 PUSH2 0x580 JUMP JUMPDEST SWAP2 POP PUSH32 0xFFFFFFFFFFFFFFFFFFFFFFFFFFFFFFFFFFFFFFFFFFFFFFFFFFFFFFFFFFFFFFFF DUP3 SUB PUSH2 0xA63 JUMPI PUSH2 0xA62 PUSH2 0x9F7 JUMP JUMPDEST JUMPDEST PUSH1 0x1 DUP3 ADD SWAP1 POP SWAP2 SWAP1 POP JUMP JUMPDEST PUSH1 0x0 DUP2 SWAP1 POP DUP2 PUSH1 0x0 MSTORE PUSH1 0x20 PUSH1 0x0 KECCAK256 SWAP1 POP SWAP2 SWAP1 POP JUMP JUMPDEST PUSH1 0x0 PUSH1 0x20 PUSH1 0x1F DUP4 ADD DIV SWAP1 POP SWAP2 SWAP1 POP JUMP JUMPDEST PUSH1 0x0 DUP3 DUP3 SHL SWAP1 POP SWAP3 SWAP2 POP POP JUMP JUMPDEST PUSH1 0x0 PUSH1 0x8 DUP4 MUL PUSH2 0xAD0 PUSH32 0xFFFFFFFFFFFFFFFFFFFFFFFFFFFFFFFFFFFFFFFFFFFFFFFFFFFFFFFFFFFFFFFF DUP3 PUSH2 0xA93 JUMP JUMPDEST PUSH2 0xADA DUP7 DUP4 PUSH2 0xA93 JUMP JUMPDEST SWAP6 POP DUP1 NOT DUP5 AND SWAP4 POP DUP1 DUP7 AND DUP5 OR SWAP3 POP POP POP SWAP4 SWAP3 POP POP POP JUMP JUMPDEST PUSH1 0x0 DUP2 SWAP1 POP SWAP2 SWAP1 POP JUMP JUMPDEST PUSH1 0x0 PUSH2 0xB17 PUSH2 0xB12 PUSH2 0xB0D DUP5 PUSH2 0x580 JUMP JUMPDEST PUSH2 0xAF2 JUMP JUMPDEST PUSH2 0x580 JUMP JUMPDEST SWAP1 POP SWAP2 SWAP1 POP JUMP JUMPDEST PUSH1 0x0 DUP2 SWAP1 POP SWAP2 SWAP1 POP JUMP JUMPDEST PUSH2 0xB31 DUP4 PUSH2 0xAFC JUMP JUMPDEST PUSH2 0xB45 PUSH2 0xB3D DUP3 PUSH2 0xB1E JUMP JUMPDEST DUP5 DUP5 SLOAD PUSH2 0xAA0 JUMP JUMPDEST DUP3 SSTORE POP POP POP POP JUMP JUMPDEST PUSH1 0x0 SWAP1 JUMP JUMPDEST PUSH2 0xB5A PUSH2 0xB4D JUMP JUMPDEST PUSH2 0xB65 DUP2 DUP5 DUP5 PUSH2 0xB28 JUMP JUMPDEST POP POP POP JUMP JUMPDEST JUMPDEST DUP2 DUP2 LT ISZERO PUSH2 0xB89 JUMPI PUSH2 0xB7E PUSH1 0x0 DUP3 PUSH2 0xB52 JUMP JUMPDEST PUSH1 0x1 DUP2 ADD SWAP1 POP PUSH2 0xB6B JUMP JUMPDEST POP POP JUMP JUMPDEST PUSH1 0x1F DUP3 GT ISZERO PUSH2 0xBCE JUMPI PUSH2 0xB9F DUP2 PUSH2 0xA6E JUMP JUMPDEST PUSH2 0xBA8 DUP5 PUSH2 0xA83 JUMP JUMPDEST DUP2 ADD PUSH1 0x20 DUP6 LT ISZERO PUSH2 0xBB7 JUMPI DUP2 SWAP1 POP JUMPDEST PUSH2 0xBCB PUSH2 0xBC3 DUP6 PUSH2 0xA83 JUMP JUMPDEST DUP4 ADD DUP3 PUSH2 0xB6A JUMP JUMPDEST POP POP JUMPDEST POP POP POP JUMP JUMPDEST PUSH1 0x0 DUP3 DUP3 SHR SWAP1 POP SWAP3 SWAP2 POP POP JUMP JUMPDEST PUSH1 0x0 PUSH2 0xBF1 PUSH1 0x0 NOT DUP5 PUSH1 0x8 MUL PUSH2 0xBD3 JUMP JUMPDEST NOT DUP1 DUP4 AND SWAP2 POP POP SWAP3 SWAP2 POP POP JUMP JUMPDEST PUSH1 0x0 PUSH2 0xC0A DUP4 DUP4 PUSH2 0xBE0 JUMP JUMPDEST SWAP2 POP DUP3 PUSH1 0x2 MUL DUP3 OR SWAP1 POP SWAP3 SWAP2 POP POP JUMP JUMPDEST PUSH2 0xC23 DUP3 PUSH2 0x637 JUMP JUMPDEST PUSH8 0xFFFFFFFFFFFFFFFF DUP2 GT ISZERO PUSH2 0xC3C JUMPI PUSH2 0xC3B PUSH2 0x761 JUMP JUMPDEST JUMPDEST PUSH2 0xC46 DUP3 SLOAD PUSH2 0x95A JUMP JUMPDEST PUSH2 0xC51 DUP3 DUP3 DUP6 PUSH2 0xB8D JUMP JUMPDEST PUSH1 0x0 PUSH1 0x20 SWAP1 POP PUSH1 0x1F DUP4 GT PUSH1 0x1 DUP2 EQ PUSH2 0xC84 JUMPI PUSH1 0x0 DUP5 ISZERO PUSH2 0xC72 JUMPI DUP3 DUP8 ADD MLOAD SWAP1 POP JUMPDEST PUSH2 0xC7C DUP6 DUP3 PUSH2 0xBFE JUMP JUMPDEST DUP7 SSTORE POP PUSH2 0xCE4 JUMP JUMPDEST PUSH1 0x1F NOT DUP5 AND PUSH2 0xC92 DUP7 PUSH2 0xA6E JUMP JUMPDEST PUSH1 0x0 JUMPDEST DUP3 DUP2 LT ISZERO PUSH2 0xCBA JUMPI DUP5 DUP10 ADD MLOAD DUP3 SSTORE PUSH1 0x1 DUP3 ADD SWAP2 POP PUSH1 0x20 DUP6 ADD SWAP5 POP PUSH1 0x20 DUP2 ADD SWAP1 POP PUSH2 0xC95 JUMP JUMPDEST DUP7 DUP4 LT ISZERO PUSH2 0xCD7 JUMPI DUP5 DUP10 ADD MLOAD PUSH2 0xCD3 PUSH1 0x1F DUP10 AND DUP3 PUSH2 0xBE0 JUMP JUMPDEST DUP4 SSTORE POP JUMPDEST PUSH1 0x1 PUSH1 0x2 DUP9 MUL ADD DUP9 SSTORE POP POP POP JUMPDEST POP POP POP POP POP POP JUMP JUMPDEST PUSH1 0x0 PUSH1 0xC0 DUP3 ADD SWAP1 POP PUSH2 0xD01 PUSH1 0x0 DUP4 ADD DUP10 PUSH2 0x58A JUMP JUMPDEST DUP2 DUP2 SUB PUSH1 0x20 DUP4 ADD MSTORE PUSH2 0xD13 DUP2 DUP9 PUSH2 0x68E JUMP JUMPDEST SWAP1 POP DUP2 DUP2 SUB PUSH1 0x40 DUP4 ADD MSTORE PUSH2 0xD27 DUP2 DUP8 PUSH2 0x68E JUMP JUMPDEST SWAP1 POP PUSH2 0xD36 PUSH1 0x60 DUP4 ADD DUP7 PUSH2 0x58A JUMP JUMPDEST PUSH2 0xD43 PUSH1 0x80 DUP4 ADD DUP6 PUSH2 0x58A JUMP JUMPDEST PUSH2 0xD50 PUSH1 0xA0 DUP4 ADD DUP5 PUSH2 0x5B4 JUMP JUMPDEST SWAP8 SWAP7 POP POP POP POP POP POP POP JUMP INVALID LOG2 PUSH5 0x6970667358 0x22 SLT KECCAK256 CREATE 0xE6 DUP10 PUSH11 0x66A6B12C1FF28038447A85 MULMOD 0xB5 0xE5 MSTORE8 RETURN PUSH21 0x50F838624C131CA8AF350764736F6C634300081400 CALLER "},"methodIdentifiers":{"admin(address)":"63a846f8","courseCount()":"66055159","courses(uint256)":"96f979d2","createCourse(string,string,uint256,uint256)":"d4c4ecfa","owner()":"8da5cb5b"}}}}}