{
  "_format": "hh-sol-artifact-1",
  "contractName": "CoursePlatform",
  "sourceName": "contracts/udemy.sol",
  "abi": [
    {
      "inputs": [],
      "stateMutability": "nonpayable",
      "type": "constructor"
    },
    {
      "anonymous": false,
      "inputs": [
        {
          "indexed": false,
          "internalType": "string",
          "name": "userId",
          "type": "string"
        },
        {
          "indexed": false,
          "internalType": "uint256",
          "name": "courseId",
          "type": "uint256"
        },
        {
          "indexed": false,
          "internalType": "string",
          "name": "studentName",
          "type": "string"
        }
      ],
      "name": "CertificateIssued",
      "type": "event"
    },
    {
      "anonymous": false,
      "inputs": [
        {
          "indexed": false,
          "internalType": "address",
          "name": "user",
          "type": "address"
        },
        {
          "indexed": false,
          "internalType": "uint256",
          "name": "courseId",
          "type": "uint256"
        }
      ],
      "name": "CourseCompleted",
      "type": "event"
    },
    {
      "anonymous": false,
      "inputs": [
        {
          "indexed": false,
          "internalType": "uint256",
          "name": "id",
          "type": "uint256"
        },
        {
          "indexed": false,
          "internalType": "string",
          "name": "name",
          "type": "string"
        },
        {
          "indexed": false,
          "internalType": "string",
          "name": "provider",
          "type": "string"
        },
        {
          "indexed": false,
          "internalType": "string",
          "name": "description",
          "type": "string"
        },
        {
          "indexed": false,
          "internalType": "string",
          "name": "imageHash",
          "type": "string"
        },
        {
          "indexed": false,
          "internalType": "uint256",
          "name": "realAmount",
          "type": "uint256"
        },
        {
          "indexed": false,
          "internalType": "uint256",
          "name": "discountedAmount",
          "type": "uint256"
        },
        {
          "indexed": false,
          "internalType": "address",
          "name": "instructor",
          "type": "address"
        }
      ],
      "name": "CourseCreated",
      "type": "event"
    },
    {
      "anonymous": false,
      "inputs": [
        {
          "indexed": false,
          "internalType": "address",
          "name": "user",
          "type": "address"
        },
        {
          "indexed": false,
          "internalType": "uint256",
          "name": "courseId",
          "type": "uint256"
        }
      ],
      "name": "CoursePurchased",
      "type": "event"
    },
    {
      "anonymous": false,
      "inputs": [
        {
          "indexed": false,
          "internalType": "uint256",
          "name": "courseId",
          "type": "uint256"
        },
        {
          "indexed": false,
          "internalType": "string",
          "name": "videoHash",
          "type": "string"
        },
        {
          "indexed": false,
          "internalType": "string",
          "name": "videoDescription",
          "type": "string"
        }
      ],
      "name": "VideoAdded",
      "type": "event"
    },
    {
      "inputs": [
        {
          "internalType": "uint256",
          "name": "_courseId",
          "type": "uint256"
        },
        {
          "internalType": "string",
          "name": "_videoHash",
          "type": "string"
        },
        {
          "internalType": "string",
          "name": "_videoDescription",
          "type": "string"
        }
      ],
      "name": "addVideoToCourse",
      "outputs": [],
      "stateMutability": "nonpayable",
      "type": "function"
    },
    {
      "inputs": [
        {
          "internalType": "uint256",
          "name": "_courseId",
          "type": "uint256"
        }
      ],
      "name": "buyCourse",
      "outputs": [],
      "stateMutability": "payable",
      "type": "function"
    },
    {
      "inputs": [
        {
          "internalType": "string",
          "name": "",
          "type": "string"
        },
        {
          "internalType": "uint256",
          "name": "",
          "type": "uint256"
        }
      ],
      "name": "certificatesByUserId",
      "outputs": [
        {
          "internalType": "bool",
          "name": "issued",
          "type": "bool"
        },
        {
          "internalType": "string",
          "name": "studentName",
          "type": "string"
        },
        {
          "internalType": "string",
          "name": "courseName",
          "type": "string"
        },
        {
          "internalType": "string",
          "name": "courseProvider",
          "type": "string"
        },
        {
          "internalType": "address",
          "name": "studentAddress",
          "type": "address"
        }
      ],
      "stateMutability": "view",
      "type": "function"
    },
    {
      "inputs": [
        {
          "internalType": "uint256",
          "name": "_courseId",
          "type": "uint256"
        }
      ],
      "name": "completeCourse",
      "outputs": [],
      "stateMutability": "nonpayable",
      "type": "function"
    },
    {
      "inputs": [
        {
          "internalType": "address",
          "name": "",
          "type": "address"
        },
        {
          "internalType": "uint256",
          "name": "",
          "type": "uint256"
        }
      ],
      "name": "courseCompleted",
      "outputs": [
        {
          "internalType": "bool",
          "name": "",
          "type": "bool"
        }
      ],
      "stateMutability": "view",
      "type": "function"
    },
    {
      "inputs": [],
      "name": "courseCount",
      "outputs": [
        {
          "internalType": "uint256",
          "name": "",
          "type": "uint256"
        }
      ],
      "stateMutability": "view",
      "type": "function"
    },
    {
      "inputs": [
        {
          "internalType": "address",
          "name": "",
          "type": "address"
        },
        {
          "internalType": "uint256",
          "name": "",
          "type": "uint256"
        }
      ],
      "name": "coursePurchased",
      "outputs": [
        {
          "internalType": "bool",
          "name": "",
          "type": "bool"
        }
      ],
      "stateMutability": "view",
      "type": "function"
    },
    {
      "inputs": [
        {
          "internalType": "uint256",
          "name": "",
          "type": "uint256"
        }
      ],
      "name": "courses",
      "outputs": [
        {
          "internalType": "uint256",
          "name": "id",
          "type": "uint256"
        },
        {
          "internalType": "string",
          "name": "name",
          "type": "string"
        },
        {
          "internalType": "string",
          "name": "provider",
          "type": "string"
        },
        {
          "internalType": "string",
          "name": "description",
          "type": "string"
        },
        {
          "internalType": "string",
          "name": "imageHash",
          "type": "string"
        },
        {
          "internalType": "uint256",
          "name": "realAmount",
          "type": "uint256"
        },
        {
          "internalType": "uint256",
          "name": "discountedAmount",
          "type": "uint256"
        },
        {
          "internalType": "address payable",
          "name": "instructor",
          "type": "address"
        }
      ],
      "stateMutability": "view",
      "type": "function"
    },
    {
      "inputs": [
        {
          "internalType": "string",
          "name": "_name",
          "type": "string"
        },
        {
          "internalType": "string",
          "name": "_provider",
          "type": "string"
        },
        {
          "internalType": "string",
          "name": "_description",
          "type": "string"
        },
        {
          "internalType": "string",
          "name": "_imageHash",
          "type": "string"
        },
        {
          "internalType": "uint256",
          "name": "_realAmount",
          "type": "uint256"
        },
        {
          "internalType": "uint256",
          "name": "_discountedAmount",
          "type": "uint256"
        }
      ],
      "name": "createCourse",
      "outputs": [],
      "stateMutability": "nonpayable",
      "type": "function"
    },
    {
      "inputs": [
        {
          "internalType": "string",
          "name": "_userId",
          "type": "string"
        },
        {
          "internalType": "uint256",
          "name": "_courseId",
          "type": "uint256"
        }
      ],
      "name": "getCertificate",
      "outputs": [
        {
          "components": [
            {
              "internalType": "bool",
              "name": "issued",
              "type": "bool"
            },
            {
              "internalType": "string",
              "name": "studentName",
              "type": "string"
            },
            {
              "internalType": "string",
              "name": "courseName",
              "type": "string"
            },
            {
              "internalType": "string",
              "name": "courseProvider",
              "type": "string"
            },
            {
              "internalType": "address",
              "name": "studentAddress",
              "type": "address"
            }
          ],
          "internalType": "struct CoursePlatform.Certificate",
          "name": "",
          "type": "tuple"
        }
      ],
      "stateMutability": "view",
      "type": "function"
    },
    {
      "inputs": [
        {
          "internalType": "uint256",
          "name": "_courseId",
          "type": "uint256"
        }
      ],
      "name": "getCourse",
      "outputs": [
        {
          "internalType": "string",
          "name": "name",
          "type": "string"
        },
        {
          "internalType": "string",
          "name": "provider",
          "type": "string"
        },
        {
          "internalType": "string",
          "name": "description",
          "type": "string"
        },
        {
          "internalType": "string",
          "name": "imageHash",
          "type": "string"
        },
        {
          "internalType": "uint256",
          "name": "realAmount",
          "type": "uint256"
        },
        {
          "internalType": "uint256",
          "name": "discountedAmount",
          "type": "uint256"
        },
        {
          "internalType": "address",
          "name": "instructor",
          "type": "address"
        }
      ],
      "stateMutability": "view",
      "type": "function"
    },
    {
      "inputs": [
        {
          "internalType": "uint256",
          "name": "_courseId",
          "type": "uint256"
        }
      ],
      "name": "getCourseVideos",
      "outputs": [
        {
          "components": [
            {
              "internalType": "string",
              "name": "videoHash",
              "type": "string"
            },
            {
              "internalType": "string",
              "name": "videoDescription",
              "type": "string"
            }
          ],
          "internalType": "struct CoursePlatform.Video[]",
          "name": "",
          "type": "tuple[]"
        }
      ],
      "stateMutability": "view",
      "type": "function"
    },
    {
      "inputs": [],
      "name": "getOwner",
      "outputs": [
        {
          "internalType": "address",
          "name": "",
          "type": "address"
        }
      ],
      "stateMutability": "view",
      "type": "function"
    },
    {
      "inputs": [
        {
          "internalType": "string",
          "name": "_userId",
          "type": "string"
        },
        {
          "internalType": "uint256",
          "name": "_courseId",
          "type": "uint256"
        },
        {
          "internalType": "string",
          "name": "_studentName",
          "type": "string"
        }
      ],
      "name": "issueCertificate",
      "outputs": [],
      "stateMutability": "nonpayable",
      "type": "function"
    },
    {
      "inputs": [],
      "name": "owner",
      "outputs": [
        {
          "internalType": "address",
          "name": "",
          "type": "address"
        }
      ],
      "stateMutability": "view",
      "type": "function"
    }
  ],
  "bytecode": "0x6080604052600060045534801561001557600080fd5b5033600560006101000a81548173ffffffffffffffffffffffffffffffffffffffff021916908373ffffffffffffffffffffffffffffffffffffffff160217905550613673806100666000396000f3fe6080604052600436106100e85760003560e01c806368f0db051161008a578063af66e63811610059578063af66e63814610306578063c3f31a6b1461032f578063c9c093a71461036c578063f3225de3146103a9576100e8565b806368f0db051461022f578063893d20e81461026c5780638da5cb5b1461029757806396f979d2146102c2576100e8565b8063194d73a2116100c6578063194d73a2146101825780631a0d65351461019e57806352695430146101c75780636605515914610204576100e8565b80630b91e28d146100ed5780630d3b429214610130578063155fd5e614610159575b600080fd5b3480156100f957600080fd5b50610114600480360381019061010f919061242f565b6103ea565b604051610127979695949392919061253c565b60405180910390f35b34801561013c57600080fd5b506101576004803603810190610152919061242f565b6108e6565b005b34801561016557600080fd5b50610180600480360381019061017b91906126fc565b610b19565b005b61019c6004803603810190610197919061242f565b610f34565b005b3480156101aa57600080fd5b506101c560048036038101906101c09190612787565b6115bd565b005b3480156101d357600080fd5b506101ee60048036038101906101e9919061242f565b611775565b6040516101fb91906129d4565b60405180910390f35b34801561021057600080fd5b506102196119aa565b60405161022691906129f6565b60405180910390f35b34801561023b57600080fd5b5061025660048036038101906102519190612a3d565b6119b0565b6040516102639190612a98565b60405180910390f35b34801561027857600080fd5b506102816119df565b60405161028e9190612ab3565b60405180910390f35b3480156102a357600080fd5b506102ac611a09565b6040516102b99190612ab3565b60405180910390f35b3480156102ce57600080fd5b506102e960048036038101906102e4919061242f565b611a2f565b6040516102fd989796959493929190612aef565b60405180910390f35b34801561031257600080fd5b5061032d60048036038101906103289190612b89565b611cb7565b005b34801561033b57600080fd5b5061035660048036038101906103519190612a3d565b611e61565b6040516103639190612a98565b60405180910390f35b34801561037857600080fd5b50610393600480360381019061038e9190612c14565b611e90565b6040516103a09190612d12565b60405180910390f35b3480156103b557600080fd5b506103d060048036038101906103cb9190612c14565b612180565b6040516103e1959493929190612d34565b60405180910390f35b60608060608060008060008760008111801561040857506004548111155b610447576040517f08c379a000000000000000000000000000000000000000000000000000000000815260040161043e90612de8565b60405180910390fd5b60008060008b8152602001908152602001600020604051806101200160405290816000820154815260200160018201805461048190612e37565b80601f01602080910402602001604051908101604052809291908181526020018280546104ad90612e37565b80156104fa5780601f106104cf576101008083540402835291602001916104fa565b820191906000526020600020905b8154815290600101906020018083116104dd57829003601f168201915b5050505050815260200160028201805461051390612e37565b80601f016020809104026020016040519081016040528092919081815260200182805461053f90612e37565b801561058c5780601f106105615761010080835404028352916020019161058c565b820191906000526020600020905b81548152906001019060200180831161056f57829003601f168201915b505050505081526020016003820180546105a590612e37565b80601f01602080910402602001604051908101604052809291908181526020018280546105d190612e37565b801561061e5780601f106105f35761010080835404028352916020019161061e565b820191906000526020600020905b81548152906001019060200180831161060157829003601f168201915b5050505050815260200160048201805461063790612e37565b80601f016020809104026020016040519081016040528092919081815260200182805461066390612e37565b80156106b05780601f10610685576101008083540402835291602001916106b0565b820191906000526020600020905b81548152906001019060200180831161069357829003601f168201915b5050505050815260200160058201548152602001600682015481526020016007820160009054906101000a900473ffffffffffffffffffffffffffffffffffffffff1673ffffffffffffffffffffffffffffffffffffffff1673ffffffffffffffffffffffffffffffffffffffff16815260200160088201805480602002602001604051908101604052809291908181526020016000905b8282101561089e578382906000526020600020906002020160405180604001604052908160008201805461077b90612e37565b80601f01602080910402602001604051908101604052809291908181526020018280546107a790612e37565b80156107f45780601f106107c9576101008083540402835291602001916107f4565b820191906000526020600020905b8154815290600101906020018083116107d757829003601f168201915b5050505050815260200160018201805461080d90612e37565b80601f016020809104026020016040519081016040528092919081815260200182805461083990612e37565b80156108865780601f1061085b57610100808354040283529160200191610886565b820191906000526020600020905b81548152906001019060200180831161086957829003601f168201915b50505050508152505081526020019060010190610748565b5050505081525050905080602001518160400151826060015183608001518460a001518560c001518660e0015198509850985098509850985098505050919395979092949650565b806000811180156108f957506004548111155b610938576040517f08c379a000000000000000000000000000000000000000000000000000000000815260040161092f90612de8565b60405180910390fd5b600160003373ffffffffffffffffffffffffffffffffffffffff1673ffffffffffffffffffffffffffffffffffffffff168152602001908152602001600020600083815260200190815260200160002060009054906101000a900460ff166109d5576040517f08c379a00000000000000000000000000000000000000000000000000000000081526004016109cc90612eb4565b60405180910390fd5b600260003373ffffffffffffffffffffffffffffffffffffffff1673ffffffffffffffffffffffffffffffffffffffff168152602001908152602001600020600083815260200190815260200160002060009054906101000a900460ff1615610a73576040517f08c379a0000000000000000000000000000000000000000000000000000000008152600401610a6a90612f20565b60405180910390fd5b6001600260003373ffffffffffffffffffffffffffffffffffffffff1673ffffffffffffffffffffffffffffffffffffffff168152602001908152602001600020600084815260200190815260200160002060006101000a81548160ff0219169083151502179055507f4b85f119a65c9ab344d9a4d007a895c9a738e08054fee095494567187c45ea863383604051610b0d929190612f40565b60405180910390a15050565b600560009054906101000a900473ffffffffffffffffffffffffffffffffffffffff1673ffffffffffffffffffffffffffffffffffffffff163373ffffffffffffffffffffffffffffffffffffffff1614610ba9576040517f08c379a0000000000000000000000000000000000000000000000000000000008152600401610ba090612fb5565b60405180910390fd5b81600081118015610bbc57506004548111155b610bfb576040517f08c379a0000000000000000000000000000000000000000000000000000000008152600401610bf290612de8565b60405180910390fd5b600260003373ffffffffffffffffffffffffffffffffffffffff1673ffffffffffffffffffffffffffffffffffffffff168152602001908152602001600020600084815260200190815260200160002060009054906101000a900460ff16610c98576040517f08c379a0000000000000000000000000000000000000000000000000000000008152600401610c8f90613047565b60405180910390fd5b60006040518060a001604052806001151581526020018481526020016000808781526020019081526020016000206001018054610cd490612e37565b80601f0160208091040260200160405190810160405280929190818152602001828054610d0090612e37565b8015610d4d5780601f10610d2257610100808354040283529160200191610d4d565b820191906000526020600020905b815481529060010190602001808311610d3057829003601f168201915b505050505081526020016000808781526020019081526020016000206002018054610d7790612e37565b80601f0160208091040260200160405190810160405280929190818152602001828054610da390612e37565b8015610df05780601f10610dc557610100808354040283529160200191610df0565b820191906000526020600020905b815481529060010190602001808311610dd357829003601f168201915b505050505081526020013373ffffffffffffffffffffffffffffffffffffffff16815250905080600386604051610e2791906130a3565b9081526020016040518091039020600086815260200190815260200160002060008201518160000160006101000a81548160ff0219169083151502179055506020820151816001019081610e7b9190613266565b506040820151816002019081610e919190613266565b506060820151816003019081610ea79190613266565b5060808201518160040160006101000a81548173ffffffffffffffffffffffffffffffffffffffff021916908373ffffffffffffffffffffffffffffffffffffffff1602179055509050507f47c08e6c37338768e3085d0555c0d096327cc19b8b7c3918edbd0932c942852f858585604051610f2593929190613338565b60405180910390a15050505050565b80600081118015610f4757506004548111155b610f86576040517f08c379a0000000000000000000000000000000000000000000000000000000008152600401610f7d90612de8565b60405180910390fd5b60008060008481526020019081526020016000206040518061012001604052908160008201548152602001600182018054610fc090612e37565b80601f0160208091040260200160405190810160405280929190818152602001828054610fec90612e37565b80156110395780601f1061100e57610100808354040283529160200191611039565b820191906000526020600020905b81548152906001019060200180831161101c57829003601f168201915b5050505050815260200160028201805461105290612e37565b80601f016020809104026020016040519081016040528092919081815260200182805461107e90612e37565b80156110cb5780601f106110a0576101008083540402835291602001916110cb565b820191906000526020600020905b8154815290600101906020018083116110ae57829003601f168201915b505050505081526020016003820180546110e490612e37565b80601f016020809104026020016040519081016040528092919081815260200182805461111090612e37565b801561115d5780601f106111325761010080835404028352916020019161115d565b820191906000526020600020905b81548152906001019060200180831161114057829003601f168201915b5050505050815260200160048201805461117690612e37565b80601f01602080910402602001604051908101604052809291908181526020018280546111a290612e37565b80156111ef5780601f106111c4576101008083540402835291602001916111ef565b820191906000526020600020905b8154815290600101906020018083116111d257829003601f168201915b5050505050815260200160058201548152602001600682015481526020016007820160009054906101000a900473ffffffffffffffffffffffffffffffffffffffff1673ffffffffffffffffffffffffffffffffffffffff1673ffffffffffffffffffffffffffffffffffffffff16815260200160088201805480602002602001604051908101604052809291908181526020016000905b828210156113dd57838290600052602060002090600202016040518060400160405290816000820180546112ba90612e37565b80601f01602080910402602001604051908101604052809291908181526020018280546112e690612e37565b80156113335780601f1061130857610100808354040283529160200191611333565b820191906000526020600020905b81548152906001019060200180831161131657829003601f168201915b5050505050815260200160018201805461134c90612e37565b80601f016020809104026020016040519081016040528092919081815260200182805461137890612e37565b80156113c55780601f1061139a576101008083540402835291602001916113c5565b820191906000526020600020905b8154815290600101906020018083116113a857829003601f168201915b50505050508152505081526020019060010190611287565b505050508152505090508060c0015134101561142e576040517f08c379a0000000000000000000000000000000000000000000000000000000008152600401611425906133ef565b60405180910390fd5b600160003373ffffffffffffffffffffffffffffffffffffffff1673ffffffffffffffffffffffffffffffffffffffff168152602001908152602001600020600084815260200190815260200160002060009054906101000a900460ff16156114cc576040517f08c379a00000000000000000000000000000000000000000000000000000000081526004016114c39061345b565b60405180910390fd5b60018060003373ffffffffffffffffffffffffffffffffffffffff1673ffffffffffffffffffffffffffffffffffffffff168152602001908152602001600020600085815260200190815260200160002060006101000a81548160ff0219169083151502179055508060e0015173ffffffffffffffffffffffffffffffffffffffff166108fc349081150290604051600060405180830381858888f1935050505015801561157e573d6000803e3d6000fd5b507fe5ad1c2d1ba3b171c8cd1cab50ec342a17e4c839c0562afe6328e29c7f38385e33846040516115b0929190612f40565b60405180910390a1505050565b600560009054906101000a900473ffffffffffffffffffffffffffffffffffffffff1673ffffffffffffffffffffffffffffffffffffffff163373ffffffffffffffffffffffffffffffffffffffff161461164d576040517f08c379a000000000000000000000000000000000000000000000000000000000815260040161164490612fb5565b60405180910390fd5b60046000815480929190611660906134aa565b91905055506000806000600454815260200190815260200160002090506004548160000181905550868160010190816116999190613266565b50858160020190816116ab9190613266565b50848160030190816116bd9190613266565b50838160040190816116cf9190613266565b50828160050181905550818160060181905550338160070160006101000a81548173ffffffffffffffffffffffffffffffffffffffff021916908373ffffffffffffffffffffffffffffffffffffffff1602179055507f097b2611f3842984890c39e20a6418e6988576fe05ec53fe03c4857428716d26600454888888888888336040516117649897969594939291906134f2565b60405180910390a150505050505050565b6060600160003373ffffffffffffffffffffffffffffffffffffffff1673ffffffffffffffffffffffffffffffffffffffff168152602001908152602001600020600083815260200190815260200160002060009054906101000a900460ff16611814576040517f08c379a000000000000000000000000000000000000000000000000000000000815260040161180b90612eb4565b60405180910390fd5b600080838152602001908152602001600020600801805480602002602001604051908101604052809291908181526020016000905b8282101561199f578382906000526020600020906002020160405180604001604052908160008201805461187c90612e37565b80601f01602080910402602001604051908101604052809291908181526020018280546118a890612e37565b80156118f55780601f106118ca576101008083540402835291602001916118f5565b820191906000526020600020905b8154815290600101906020018083116118d857829003601f168201915b5050505050815260200160018201805461190e90612e37565b80601f016020809104026020016040519081016040528092919081815260200182805461193a90612e37565b80156119875780601f1061195c57610100808354040283529160200191611987565b820191906000526020600020905b81548152906001019060200180831161196a57829003601f168201915b50505050508152505081526020019060010190611849565b505050509050919050565b60045481565b60026020528160005260406000206020528060005260406000206000915091509054906101000a900460ff1681565b6000600560009054906101000a900473ffffffffffffffffffffffffffffffffffffffff16905090565b600560009054906101000a900473ffffffffffffffffffffffffffffffffffffffff1681565b6000602052806000526040600020600091509050806000015490806001018054611a5890612e37565b80601f0160208091040260200160405190810160405280929190818152602001828054611a8490612e37565b8015611ad15780601f10611aa657610100808354040283529160200191611ad1565b820191906000526020600020905b815481529060010190602001808311611ab457829003601f168201915b505050505090806002018054611ae690612e37565b80601f0160208091040260200160405190810160405280929190818152602001828054611b1290612e37565b8015611b5f5780601f10611b3457610100808354040283529160200191611b5f565b820191906000526020600020905b815481529060010190602001808311611b4257829003601f168201915b505050505090806003018054611b7490612e37565b80601f0160208091040260200160405190810160405280929190818152602001828054611ba090612e37565b8015611bed5780601f10611bc257610100808354040283529160200191611bed565b820191906000526020600020905b815481529060010190602001808311611bd057829003601f168201915b505050505090806004018054611c0290612e37565b80601f0160208091040260200160405190810160405280929190818152602001828054611c2e90612e37565b8015611c7b5780601f10611c5057610100808354040283529160200191611c7b565b820191906000526020600020905b815481529060010190602001808311611c5e57829003601f168201915b5050505050908060050154908060060154908060070160009054906101000a900473ffffffffffffffffffffffffffffffffffffffff16905088565b600560009054906101000a900473ffffffffffffffffffffffffffffffffffffffff1673ffffffffffffffffffffffffffffffffffffffff163373ffffffffffffffffffffffffffffffffffffffff1614611d47576040517f08c379a0000000000000000000000000000000000000000000000000000000008152600401611d3e90612fb5565b60405180910390fd5b82600081118015611d5a57506004548111155b611d99576040517f08c379a0000000000000000000000000000000000000000000000000000000008152600401611d9090612de8565b60405180910390fd5b600060405180604001604052808581526020018481525090506000808681526020019081526020016000206008018190806001815401808255809150506001900390600052602060002090600202016000909190919091506000820151816000019081611e069190613266565b506020820151816001019081611e1c9190613266565b5050507f49d2f8acf95a9936dfe33694c8265745da0a17c5bf9328f136dc528833f52c91858585604051611e529392919061358c565b60405180910390a15050505050565b60016020528160005260406000206020528060005260406000206000915091509054906101000a900460ff1681565b611e9861239e565b600383604051611ea891906130a3565b9081526020016040518091039020600083815260200190815260200160002060000160009054906101000a900460ff16611f17576040517f08c379a0000000000000000000000000000000000000000000000000000000008152600401611f0e9061361d565b60405180910390fd5b600383604051611f2791906130a3565b908152602001604051809103902060008381526020019081526020016000206040518060a00160405290816000820160009054906101000a900460ff16151515158152602001600182018054611f7c90612e37565b80601f0160208091040260200160405190810160405280929190818152602001828054611fa890612e37565b8015611ff55780601f10611fca57610100808354040283529160200191611ff5565b820191906000526020600020905b815481529060010190602001808311611fd857829003601f168201915b5050505050815260200160028201805461200e90612e37565b80601f016020809104026020016040519081016040528092919081815260200182805461203a90612e37565b80156120875780601f1061205c57610100808354040283529160200191612087565b820191906000526020600020905b81548152906001019060200180831161206a57829003601f168201915b505050505081526020016003820180546120a090612e37565b80601f01602080910402602001604051908101604052809291908181526020018280546120cc90612e37565b80156121195780601f106120ee57610100808354040283529160200191612119565b820191906000526020600020905b8154815290600101906020018083116120fc57829003601f168201915b505050505081526020016004820160009054906101000a900473ffffffffffffffffffffffffffffffffffffffff1673ffffffffffffffffffffffffffffffffffffffff1673ffffffffffffffffffffffffffffffffffffffff1681525050905092915050565b600382805160208101820180518482526020830160208501208183528095505050505050602052806000526040600020600091509150508060000160009054906101000a900460ff16908060010180546121d990612e37565b80601f016020809104026020016040519081016040528092919081815260200182805461220590612e37565b80156122525780601f1061222757610100808354040283529160200191612252565b820191906000526020600020905b81548152906001019060200180831161223557829003601f168201915b50505050509080600201805461226790612e37565b80601f016020809104026020016040519081016040528092919081815260200182805461229390612e37565b80156122e05780601f106122b5576101008083540402835291602001916122e0565b820191906000526020600020905b8154815290600101906020018083116122c357829003601f168201915b5050505050908060030180546122f590612e37565b80601f016020809104026020016040519081016040528092919081815260200182805461232190612e37565b801561236e5780601f106123435761010080835404028352916020019161236e565b820191906000526020600020905b81548152906001019060200180831161235157829003601f168201915b5050505050908060040160009054906101000a900473ffffffffffffffffffffffffffffffffffffffff16905085565b6040518060a00160405280600015158152602001606081526020016060815260200160608152602001600073ffffffffffffffffffffffffffffffffffffffff1681525090565b6000604051905090565b600080fd5b600080fd5b6000819050919050565b61240c816123f9565b811461241757600080fd5b50565b60008135905061242981612403565b92915050565b600060208284031215612445576124446123ef565b5b60006124538482850161241a565b91505092915050565b600081519050919050565b600082825260208201905092915050565b60005b8381101561249657808201518184015260208101905061247b565b60008484015250505050565b6000601f19601f8301169050919050565b60006124be8261245c565b6124c88185612467565b93506124d8818560208601612478565b6124e1816124a2565b840191505092915050565b6124f5816123f9565b82525050565b600073ffffffffffffffffffffffffffffffffffffffff82169050919050565b6000612526826124fb565b9050919050565b6125368161251b565b82525050565b600060e0820190508181036000830152612556818a6124b3565b9050818103602083015261256a81896124b3565b9050818103604083015261257e81886124b3565b9050818103606083015261259281876124b3565b90506125a160808301866124ec565b6125ae60a08301856124ec565b6125bb60c083018461252d565b98975050505050505050565b600080fd5b600080fd5b7f4e487b7100000000000000000000000000000000000000000000000000000000600052604160045260246000fd5b612609826124a2565b810181811067ffffffffffffffff82111715612628576126276125d1565b5b80604052505050565b600061263b6123e5565b90506126478282612600565b919050565b600067ffffffffffffffff821115612667576126666125d1565b5b612670826124a2565b9050602081019050919050565b82818337600083830152505050565b600061269f61269a8461264c565b612631565b9050828152602081018484840111156126bb576126ba6125cc565b5b6126c684828561267d565b509392505050565b600082601f8301126126e3576126e26125c7565b5b81356126f384826020860161268c565b91505092915050565b600080600060608486031215612715576127146123ef565b5b600084013567ffffffffffffffff811115612733576127326123f4565b5b61273f868287016126ce565b93505060206127508682870161241a565b925050604084013567ffffffffffffffff811115612771576127706123f4565b5b61277d868287016126ce565b9150509250925092565b60008060008060008060c087890312156127a4576127a36123ef565b5b600087013567ffffffffffffffff8111156127c2576127c16123f4565b5b6127ce89828a016126ce565b965050602087013567ffffffffffffffff8111156127ef576127ee6123f4565b5b6127fb89828a016126ce565b955050604087013567ffffffffffffffff81111561281c5761281b6123f4565b5b61282889828a016126ce565b945050606087013567ffffffffffffffff811115612849576128486123f4565b5b61285589828a016126ce565b935050608061286689828a0161241a565b92505060a061287789828a0161241a565b9150509295509295509295565b600081519050919050565b600082825260208201905092915050565b6000819050602082019050919050565b600082825260208201905092915050565b60006128cc8261245c565b6128d681856128b0565b93506128e6818560208601612478565b6128ef816124a2565b840191505092915050565b6000604083016000830151848203600086015261291782826128c1565b9150506020830151848203602086015261293182826128c1565b9150508091505092915050565b600061294a83836128fa565b905092915050565b6000602082019050919050565b600061296a82612884565b612974818561288f565b935083602082028501612986856128a0565b8060005b858110156129c257848403895281516129a3858261293e565b94506129ae83612952565b925060208a0199505060018101905061298a565b50829750879550505050505092915050565b600060208201905081810360008301526129ee818461295f565b905092915050565b6000602082019050612a0b60008301846124ec565b92915050565b612a1a8161251b565b8114612a2557600080fd5b50565b600081359050612a3781612a11565b92915050565b60008060408385031215612a5457612a536123ef565b5b6000612a6285828601612a28565b9250506020612a738582860161241a565b9150509250929050565b60008115159050919050565b612a9281612a7d565b82525050565b6000602082019050612aad6000830184612a89565b92915050565b6000602082019050612ac8600083018461252d565b92915050565b6000612ad9826124fb565b9050919050565b612ae981612ace565b82525050565b600061010082019050612b05600083018b6124ec565b8181036020830152612b17818a6124b3565b90508181036040830152612b2b81896124b3565b90508181036060830152612b3f81886124b3565b90508181036080830152612b5381876124b3565b9050612b6260a08301866124ec565b612b6f60c08301856124ec565b612b7c60e0830184612ae0565b9998505050505050505050565b600080600060608486031215612ba257612ba16123ef565b5b6000612bb08682870161241a565b935050602084013567ffffffffffffffff811115612bd157612bd06123f4565b5b612bdd868287016126ce565b925050604084013567ffffffffffffffff811115612bfe57612bfd6123f4565b5b612c0a868287016126ce565b9150509250925092565b60008060408385031215612c2b57612c2a6123ef565b5b600083013567ffffffffffffffff811115612c4957612c486123f4565b5b612c55858286016126ce565b9250506020612c668582860161241a565b9150509250929050565b612c7981612a7d565b82525050565b612c888161251b565b82525050565b600060a083016000830151612ca66000860182612c70565b5060208301518482036020860152612cbe82826128c1565b91505060408301518482036040860152612cd882826128c1565b91505060608301518482036060860152612cf282826128c1565b9150506080830151612d076080860182612c7f565b508091505092915050565b60006020820190508181036000830152612d2c8184612c8e565b905092915050565b600060a082019050612d496000830188612a89565b8181036020830152612d5b81876124b3565b90508181036040830152612d6f81866124b3565b90508181036060830152612d8381856124b3565b9050612d92608083018461252d565b9695505050505050565b7f436f7572736520646f6573206e6f742065786973740000000000000000000000600082015250565b6000612dd2601583612467565b9150612ddd82612d9c565b602082019050919050565b60006020820190508181036000830152612e0181612dc5565b9050919050565b7f4e487b7100000000000000000000000000000000000000000000000000000000600052602260045260246000fd5b60006002820490506001821680612e4f57607f821691505b602082108103612e6257612e61612e08565b5b50919050565b7f596f75206e65656420746f206275792074686520636f75727365206669727374600082015250565b6000612e9e602083612467565b9150612ea982612e68565b602082019050919050565b60006020820190508181036000830152612ecd81612e91565b9050919050565b7f436f7572736520616c726561647920636f6d706c657465640000000000000000600082015250565b6000612f0a601883612467565b9150612f1582612ed4565b602082019050919050565b60006020820190508181036000830152612f3981612efd565b9050919050565b6000604082019050612f55600083018561252d565b612f6260208301846124ec565b9392505050565b7f4e6f742074686520636f6e7472616374206f776e657200000000000000000000600082015250565b6000612f9f601683612467565b9150612faa82612f69565b602082019050919050565b60006020820190508181036000830152612fce81612f92565b9050919050565b7f436f75727365206e6f7420636f6d706c6574656420627920746865207374756460008201527f656e740000000000000000000000000000000000000000000000000000000000602082015250565b6000613031602383612467565b915061303c82612fd5565b604082019050919050565b6000602082019050818103600083015261306081613024565b9050919050565b600081905092915050565b600061307d8261245c565b6130878185613067565b9350613097818560208601612478565b80840191505092915050565b60006130af8284613072565b915081905092915050565b60008190508160005260206000209050919050565b60006020601f8301049050919050565b600082821b905092915050565b60006008830261311c7fffffffffffffffffffffffffffffffffffffffffffffffffffffffffffffffff826130df565b61312686836130df565b95508019841693508086168417925050509392505050565b6000819050919050565b600061316361315e613159846123f9565b61313e565b6123f9565b9050919050565b6000819050919050565b61317d83613148565b6131916131898261316a565b8484546130ec565b825550505050565b600090565b6131a6613199565b6131b1818484613174565b505050565b5b818110156131d5576131ca60008261319e565b6001810190506131b7565b5050565b601f82111561321a576131eb816130ba565b6131f4846130cf565b81016020851015613203578190505b61321761320f856130cf565b8301826131b6565b50505b505050565b600082821c905092915050565b600061323d6000198460080261321f565b1980831691505092915050565b6000613256838361322c565b9150826002028217905092915050565b61326f8261245c565b67ffffffffffffffff811115613288576132876125d1565b5b6132928254612e37565b61329d8282856131d9565b600060209050601f8311600181146132d057600084156132be578287015190505b6132c8858261324a565b865550613330565b601f1984166132de866130ba565b60005b82811015613306578489015182556001820191506020850194506020810190506132e1565b86831015613323578489015161331f601f89168261322c565b8355505b6001600288020188555050505b505050505050565b6000606082019050818103600083015261335281866124b3565b905061336160208301856124ec565b818103604083015261337381846124b3565b9050949350505050565b7f4e6f7420656e6f7567682045544820746f20707572636861736520746865206360008201527f6f75727365000000000000000000000000000000000000000000000000000000602082015250565b60006133d9602583612467565b91506133e48261337d565b604082019050919050565b60006020820190508181036000830152613408816133cc565b9050919050565b7f436f7572736520616c7265616479207075726368617365640000000000000000600082015250565b6000613445601883612467565b91506134508261340f565b602082019050919050565b6000602082019050818103600083015261347481613438565b9050919050565b7f4e487b7100000000000000000000000000000000000000000000000000000000600052601160045260246000fd5b60006134b5826123f9565b91507fffffffffffffffffffffffffffffffffffffffffffffffffffffffffffffffff82036134e7576134e661347b565b5b600182019050919050565b600061010082019050613508600083018b6124ec565b818103602083015261351a818a6124b3565b9050818103604083015261352e81896124b3565b9050818103606083015261354281886124b3565b9050818103608083015261355681876124b3565b905061356560a08301866124ec565b61357260c08301856124ec565b61357f60e083018461252d565b9998505050505050505050565b60006060820190506135a160008301866124ec565b81810360208301526135b381856124b3565b905081810360408301526135c781846124b3565b9050949350505050565b7f4e6f206365727469666963617465206973737565642079657400000000000000600082015250565b6000613607601983612467565b9150613612826135d1565b602082019050919050565b60006020820190508181036000830152613636816135fa565b905091905056fea264697066735822122047559f2aebe43fa768872597ccf30172bbcf9267f9c6201a2b0f08cb4180758464736f6c63430008140033",
  "linkReferences": {},
  "deployedLinkReferences": {}
}