{
    "_format": "hh-sol-artifact-1",
    "contractName": "CoursePlatform",
    "sourceName": "contracts/udemy.sol",
    "abi": [
        {
            "inputs": [],
            "stateMutability": "nonpayable",
            "type": "constructor"
        },
        {
            "anonymous": false,
            "inputs": [
                {
                    "indexed": false,
                    "internalType": "address",
                    "name": "user",
                    "type": "address"
                },
                {
                    "indexed": false,
                    "internalType": "uint256",
                    "name": "courseId",
                    "type": "uint256"
                },
                {
                    "indexed": false,
                    "internalType": "string",
                    "name": "studentName",
                    "type": "string"
                }
            ],
            "name": "CertificateIssued",
            "type": "event"
        },
        {
            "anonymous": false,
            "inputs": [
                {
                    "indexed": false,
                    "internalType": "address",
                    "name": "user",
                    "type": "address"
                },
                {
                    "indexed": false,
                    "internalType": "uint256",
                    "name": "courseId",
                    "type": "uint256"
                }
            ],
            "name": "CourseCompleted",
            "type": "event"
        },
        {
            "anonymous": false,
            "inputs": [
                {
                    "indexed": false,
                    "internalType": "uint256",
                    "name": "id",
                    "type": "uint256"
                },
                {
                    "indexed": false,
                    "internalType": "string",
                    "name": "name",
                    "type": "string"
                },
                {
                    "indexed": false,
                    "internalType": "string",
                    "name": "provider",
                    "type": "string"
                },
                {
                    "indexed": false,
                    "internalType": "string",
                    "name": "description",
                    "type": "string"
                },
                {
                    "indexed": false,
                    "internalType": "string",
                    "name": "imageHash",
                    "type": "string"
                },
                {
                    "indexed": false,
                    "internalType": "uint256",
                    "name": "realAmount",
                    "type": "uint256"
                },
                {
                    "indexed": false,
                    "internalType": "uint256",
                    "name": "discountedAmount",
                    "type": "uint256"
                },
                {
                    "indexed": false,
                    "internalType": "address",
                    "name": "instructor",
                    "type": "address"
                }
            ],
            "name": "CourseCreated",
            "type": "event"
        },
        {
            "anonymous": false,
            "inputs": [
                {
                    "indexed": false,
                    "internalType": "address",
                    "name": "user",
                    "type": "address"
                },
                {
                    "indexed": false,
                    "internalType": "uint256",
                    "name": "courseId",
                    "type": "uint256"
                }
            ],
            "name": "CoursePurchased",
            "type": "event"
        },
        {
            "inputs": [
                {
                    "internalType": "uint256",
                    "name": "_courseId",
                    "type": "uint256"
                },
                {
                    "internalType": "string",
                    "name": "_videoHash",
                    "type": "string"
                }
            ],
            "name": "addVideoToCourse",
            "outputs": [],
            "stateMutability": "nonpayable",
            "type": "function"
        },
        {
            "inputs": [
                {
                    "internalType": "uint256",
                    "name": "_courseId",
                    "type": "uint256"
                }
            ],
            "name": "buyCourse",
            "outputs": [],
            "stateMutability": "payable",
            "type": "function"
        },
        {
            "inputs": [
                {
                    "internalType": "address",
                    "name": "",
                    "type": "address"
                },
                {
                    "internalType": "uint256",
                    "name": "",
                    "type": "uint256"
                }
            ],
            "name": "certificates",
            "outputs": [
                {
                    "internalType": "bool",
                    "name": "issued",
                    "type": "bool"
                },
                {
                    "internalType": "string",
                    "name": "studentName",
                    "type": "string"
                },
                {
                    "internalType": "string",
                    "name": "courseName",
                    "type": "string"
                },
                {
                    "internalType": "string",
                    "name": "courseProvider",
                    "type": "string"
                },
                {
                    "internalType": "address",
                    "name": "studentAddress",
                    "type": "address"
                }
            ],
            "stateMutability": "view",
            "type": "function"
        },
        {
            "inputs": [
                {
                    "internalType": "uint256",
                    "name": "_courseId",
                    "type": "uint256"
                }
            ],
            "name": "completeCourse",
            "outputs": [],
            "stateMutability": "nonpayable",
            "type": "function"
        },
        {
            "inputs": [
                {
                    "internalType": "address",
                    "name": "",
                    "type": "address"
                },
                {
                    "internalType": "uint256",
                    "name": "",
                    "type": "uint256"
                }
            ],
            "name": "courseCompleted",
            "outputs": [
                {
                    "internalType": "bool",
                    "name": "",
                    "type": "bool"
                }
            ],
            "stateMutability": "view",
            "type": "function"
        },
        {
            "inputs": [],
            "name": "courseCount",
            "outputs": [
                {
                    "internalType": "uint256",
                    "name": "",
                    "type": "uint256"
                }
            ],
            "stateMutability": "view",
            "type": "function"
        },
        {
            "inputs": [
                {
                    "internalType": "address",
                    "name": "",
                    "type": "address"
                },
                {
                    "internalType": "uint256",
                    "name": "",
                    "type": "uint256"
                }
            ],
            "name": "coursePurchased",
            "outputs": [
                {
                    "internalType": "bool",
                    "name": "",
                    "type": "bool"
                }
            ],
            "stateMutability": "view",
            "type": "function"
        },
        {
            "inputs": [
                {
                    "internalType": "uint256",
                    "name": "",
                    "type": "uint256"
                }
            ],
            "name": "courses",
            "outputs": [
                {
                    "internalType": "uint256",
                    "name": "id",
                    "type": "uint256"
                },
                {
                    "internalType": "string",
                    "name": "name",
                    "type": "string"
                },
                {
                    "internalType": "string",
                    "name": "provider",
                    "type": "string"
                },
                {
                    "internalType": "string",
                    "name": "description",
                    "type": "string"
                },
                {
                    "internalType": "string",
                    "name": "imageHash",
                    "type": "string"
                },
                {
                    "internalType": "uint256",
                    "name": "realAmount",
                    "type": "uint256"
                },
                {
                    "internalType": "uint256",
                    "name": "discountedAmount",
                    "type": "uint256"
                },
                {
                    "internalType": "address payable",
                    "name": "instructor",
                    "type": "address"
                }
            ],
            "stateMutability": "view",
            "type": "function"
        },
        {
            "inputs": [
                {
                    "internalType": "string",
                    "name": "_name",
                    "type": "string"
                },
                {
                    "internalType": "string",
                    "name": "_provider",
                    "type": "string"
                },
                {
                    "internalType": "string",
                    "name": "_description",
                    "type": "string"
                },
                {
                    "internalType": "string",
                    "name": "_imageHash",
                    "type": "string"
                },
                {
                    "internalType": "uint256",
                    "name": "_realAmount",
                    "type": "uint256"
                },
                {
                    "internalType": "uint256",
                    "name": "_discountedAmount",
                    "type": "uint256"
                }
            ],
            "name": "createCourse",
            "outputs": [],
            "stateMutability": "nonpayable",
            "type": "function"
        },
        {
            "inputs": [
                {
                    "internalType": "uint256",
                    "name": "_courseId",
                    "type": "uint256"
                }
            ],
            "name": "getCertificate",
            "outputs": [
                {
                    "components": [
                        {
                            "internalType": "bool",
                            "name": "issued",
                            "type": "bool"
                        },
                        {
                            "internalType": "string",
                            "name": "studentName",
                            "type": "string"
                        },
                        {
                            "internalType": "string",
                            "name": "courseName",
                            "type": "string"
                        },
                        {
                            "internalType": "string",
                            "name": "courseProvider",
                            "type": "string"
                        },
                        {
                            "internalType": "address",
                            "name": "studentAddress",
                            "type": "address"
                        }
                    ],
                    "internalType": "struct CoursePlatform.Certificate",
                    "name": "",
                    "type": "tuple"
                }
            ],
            "stateMutability": "view",
            "type": "function"
        },
        {
            "inputs": [
                {
                    "internalType": "uint256",
                    "name": "_courseId",
                    "type": "uint256"
                }
            ],
            "name": "getCourse",
            "outputs": [
                {
                    "internalType": "string",
                    "name": "name",
                    "type": "string"
                },
                {
                    "internalType": "string",
                    "name": "provider",
                    "type": "string"
                },
                {
                    "internalType": "string",
                    "name": "description",
                    "type": "string"
                },
                {
                    "internalType": "string",
                    "name": "imageHash",
                    "type": "string"
                },
                {
                    "internalType": "uint256",
                    "name": "realAmount",
                    "type": "uint256"
                },
                {
                    "internalType": "uint256",
                    "name": "discountedAmount",
                    "type": "uint256"
                },
                {
                    "internalType": "address",
                    "name": "instructor",
                    "type": "address"
                }
            ],
            "stateMutability": "view",
            "type": "function"
        },
        {
            "inputs": [
                {
                    "internalType": "uint256",
                    "name": "_courseId",
                    "type": "uint256"
                }
            ],
            "name": "getCourseVideos",
            "outputs": [
                {
                    "internalType": "string[]",
                    "name": "",
                    "type": "string[]"
                }
            ],
            "stateMutability": "view",
            "type": "function"
        },
        {
            "inputs": [
                {
                    "internalType": "uint256",
                    "name": "_courseId",
                    "type": "uint256"
                },
                {
                    "internalType": "string",
                    "name": "_studentName",
                    "type": "string"
                }
            ],
            "name": "issueCertificate",
            "outputs": [],
            "stateMutability": "nonpayable",
            "type": "function"
        },
        {
            "inputs": [],
            "name": "owner",
            "outputs": [
                {
                    "internalType": "address",
                    "name": "",
                    "type": "address"
                }
            ],
            "stateMutability": "view",
            "type": "function"
        }
    ],
    "bytecode": "0x6080604052600060045534801561001557600080fd5b5033600560006101000a81548173ffffffffffffffffffffffffffffffffffffffff021916908373ffffffffffffffffffffffffffffffffffffffff160217905550613352806100666000396000f3fe6080604052600436106100dd5760003560e01c806351640fee1161007f57806368f0db051161005957806368f0db05146102cb5780638da5cb5b1461030857806396f979d214610333578063c3f31a6b14610377576100dd565b806351640fee14610226578063526954301461026357806366055159146102a0576100dd565b8063194d73a2116100bb578063194d73a2146101775780631a0d6535146101935780632318bf44146101bc57806346f3141c146101e5576100dd565b80630b91e28d146100e25780630c816de4146101255780630d3b42921461014e575b600080fd5b3480156100ee57600080fd5b5061010960048036038101906101049190612307565b6103b4565b60405161011c9796959493929190612414565b60405180910390f35b34801561013157600080fd5b5061014c600480360381019061014791906125d4565b610806565b005b34801561015a57600080fd5b5061017560048036038101906101709190612307565b610c41565b005b610191600480360381019061018c9190612307565b610e74565b005b34801561019f57600080fd5b506101ba60048036038101906101b59190612630565b611453565b005b3480156101c857600080fd5b506101e360048036038101906101de91906125d4565b611697565b005b3480156101f157600080fd5b5061020c60048036038101906102079190612759565b6117c6565b60405161021d9594939291906127b4565b60405180910390f35b34801561023257600080fd5b5061024d60048036038101906102489190612307565b6119ce565b60405161025a9190612908565b60405180910390f35b34801561026f57600080fd5b5061028a60048036038101906102859190612307565b611cff565b60405161029791906129ec565b60405180910390f35b3480156102ac57600080fd5b506102b5611e8a565b6040516102c29190612a0e565b60405180910390f35b3480156102d757600080fd5b506102f260048036038101906102ed9190612759565b611e90565b6040516102ff9190612a29565b60405180910390f35b34801561031457600080fd5b5061031d611ebf565b60405161032a9190612a44565b60405180910390f35b34801561033f57600080fd5b5061035a60048036038101906103559190612307565b611ee5565b60405161036e989796959493929190612a80565b60405180910390f35b34801561038357600080fd5b5061039e60048036038101906103999190612759565b61216d565b6040516103ab9190612a29565b60405180910390f35b6060806060806000806000876000811180156103d257506004548111155b610411576040517f08c379a000000000000000000000000000000000000000000000000000000000815260040161040890612b66565b60405180910390fd5b60008060008b8152602001908152602001600020604051806101200160405290816000820154815260200160018201805461044b90612bb5565b80601f016020809104026020016040519081016040528092919081815260200182805461047790612bb5565b80156104c45780601f10610499576101008083540402835291602001916104c4565b820191906000526020600020905b8154815290600101906020018083116104a757829003601f168201915b505050505081526020016002820180546104dd90612bb5565b80601f016020809104026020016040519081016040528092919081815260200182805461050990612bb5565b80156105565780601f1061052b57610100808354040283529160200191610556565b820191906000526020600020905b81548152906001019060200180831161053957829003601f168201915b5050505050815260200160038201805461056f90612bb5565b80601f016020809104026020016040519081016040528092919081815260200182805461059b90612bb5565b80156105e85780601f106105bd576101008083540402835291602001916105e8565b820191906000526020600020905b8154815290600101906020018083116105cb57829003601f168201915b5050505050815260200160048201805461060190612bb5565b80601f016020809104026020016040519081016040528092919081815260200182805461062d90612bb5565b801561067a5780601f1061064f5761010080835404028352916020019161067a565b820191906000526020600020905b81548152906001019060200180831161065d57829003601f168201915b5050505050815260200160058201548152602001600682015481526020016007820160009054906101000a900473ffffffffffffffffffffffffffffffffffffffff1673ffffffffffffffffffffffffffffffffffffffff1673ffffffffffffffffffffffffffffffffffffffff16815260200160088201805480602002602001604051908101604052809291908181526020016000905b828210156107be57838290600052602060002001805461073190612bb5565b80601f016020809104026020016040519081016040528092919081815260200182805461075d90612bb5565b80156107aa5780601f1061077f576101008083540402835291602001916107aa565b820191906000526020600020905b81548152906001019060200180831161078d57829003601f168201915b505050505081526020019060010190610712565b5050505081525050905080602001518160400151826060015183608001518460a001518560c001518660e0015198509850985098509850985098505050919395979092949650565b600560009054906101000a900473ffffffffffffffffffffffffffffffffffffffff1673ffffffffffffffffffffffffffffffffffffffff163373ffffffffffffffffffffffffffffffffffffffff1614610896576040517f08c379a000000000000000000000000000000000000000000000000000000000815260040161088d90612c32565b60405180910390fd5b816000811180156108a957506004548111155b6108e8576040517f08c379a00000000000000000000000000000000000000000000000000000000081526004016108df90612b66565b60405180910390fd5b600260003373ffffffffffffffffffffffffffffffffffffffff1673ffffffffffffffffffffffffffffffffffffffff168152602001908152602001600020600084815260200190815260200160002060009054906101000a900460ff16610985576040517f08c379a000000000000000000000000000000000000000000000000000000000815260040161097c90612cc4565b60405180910390fd5b60006040518060a0016040528060011515815260200184815260200160008087815260200190815260200160002060010180546109c190612bb5565b80601f01602080910402602001604051908101604052809291908181526020018280546109ed90612bb5565b8015610a3a5780601f10610a0f57610100808354040283529160200191610a3a565b820191906000526020600020905b815481529060010190602001808311610a1d57829003601f168201915b505050505081526020016000808781526020019081526020016000206002018054610a6490612bb5565b80601f0160208091040260200160405190810160405280929190818152602001828054610a9090612bb5565b8015610add5780601f10610ab257610100808354040283529160200191610add565b820191906000526020600020905b815481529060010190602001808311610ac057829003601f168201915b505050505081526020013373ffffffffffffffffffffffffffffffffffffffff16815250905080600360003373ffffffffffffffffffffffffffffffffffffffff1673ffffffffffffffffffffffffffffffffffffffff168152602001908152602001600020600086815260200190815260200160002060008201518160000160006101000a81548160ff0219169083151502179055506020820151816001019081610b899190612e90565b506040820151816002019081610b9f9190612e90565b506060820151816003019081610bb59190612e90565b5060808201518160040160006101000a81548173ffffffffffffffffffffffffffffffffffffffff021916908373ffffffffffffffffffffffffffffffffffffffff1602179055509050507f29f8f795343069eda4c1b8173361b78c760d0554fa9a50cd4506019c25183cda338585604051610c3393929190612f62565b60405180910390a150505050565b80600081118015610c5457506004548111155b610c93576040517f08c379a0000000000000000000000000000000000000000000000000000000008152600401610c8a90612b66565b60405180910390fd5b600160003373ffffffffffffffffffffffffffffffffffffffff1673ffffffffffffffffffffffffffffffffffffffff168152602001908152602001600020600083815260200190815260200160002060009054906101000a900460ff16610d30576040517f08c379a0000000000000000000000000000000000000000000000000000000008152600401610d2790612fec565b60405180910390fd5b600260003373ffffffffffffffffffffffffffffffffffffffff1673ffffffffffffffffffffffffffffffffffffffff168152602001908152602001600020600083815260200190815260200160002060009054906101000a900460ff1615610dce576040517f08c379a0000000000000000000000000000000000000000000000000000000008152600401610dc590613058565b60405180910390fd5b6001600260003373ffffffffffffffffffffffffffffffffffffffff1673ffffffffffffffffffffffffffffffffffffffff168152602001908152602001600020600084815260200190815260200160002060006101000a81548160ff0219169083151502179055507f4b85f119a65c9ab344d9a4d007a895c9a738e08054fee095494567187c45ea863383604051610e68929190613078565b60405180910390a15050565b80600081118015610e8757506004548111155b610ec6576040517f08c379a0000000000000000000000000000000000000000000000000000000008152600401610ebd90612b66565b60405180910390fd5b60008060008481526020019081526020016000206040518061012001604052908160008201548152602001600182018054610f0090612bb5565b80601f0160208091040260200160405190810160405280929190818152602001828054610f2c90612bb5565b8015610f795780601f10610f4e57610100808354040283529160200191610f79565b820191906000526020600020905b815481529060010190602001808311610f5c57829003601f168201915b50505050508152602001600282018054610f9290612bb5565b80601f0160208091040260200160405190810160405280929190818152602001828054610fbe90612bb5565b801561100b5780601f10610fe05761010080835404028352916020019161100b565b820191906000526020600020905b815481529060010190602001808311610fee57829003601f168201915b5050505050815260200160038201805461102490612bb5565b80601f016020809104026020016040519081016040528092919081815260200182805461105090612bb5565b801561109d5780601f106110725761010080835404028352916020019161109d565b820191906000526020600020905b81548152906001019060200180831161108057829003601f168201915b505050505081526020016004820180546110b690612bb5565b80601f01602080910402602001604051908101604052809291908181526020018280546110e290612bb5565b801561112f5780601f106111045761010080835404028352916020019161112f565b820191906000526020600020905b81548152906001019060200180831161111257829003601f168201915b5050505050815260200160058201548152602001600682015481526020016007820160009054906101000a900473ffffffffffffffffffffffffffffffffffffffff1673ffffffffffffffffffffffffffffffffffffffff1673ffffffffffffffffffffffffffffffffffffffff16815260200160088201805480602002602001604051908101604052809291908181526020016000905b828210156112735783829060005260206000200180546111e690612bb5565b80601f016020809104026020016040519081016040528092919081815260200182805461121290612bb5565b801561125f5780601f106112345761010080835404028352916020019161125f565b820191906000526020600020905b81548152906001019060200180831161124257829003601f168201915b5050505050815260200190600101906111c7565b505050508152505090508060c001513410156112c4576040517f08c379a00000000000000000000000000000000000000000000000000000000081526004016112bb90613113565b60405180910390fd5b600160003373ffffffffffffffffffffffffffffffffffffffff1673ffffffffffffffffffffffffffffffffffffffff168152602001908152602001600020600084815260200190815260200160002060009054906101000a900460ff1615611362576040517f08c379a00000000000000000000000000000000000000000000000000000000081526004016113599061317f565b60405180910390fd5b60018060003373ffffffffffffffffffffffffffffffffffffffff1673ffffffffffffffffffffffffffffffffffffffff168152602001908152602001600020600085815260200190815260200160002060006101000a81548160ff0219169083151502179055508060e0015173ffffffffffffffffffffffffffffffffffffffff166108fc349081150290604051600060405180830381858888f19350505050158015611414573d6000803e3d6000fd5b507fe5ad1c2d1ba3b171c8cd1cab50ec342a17e4c839c0562afe6328e29c7f38385e3384604051611446929190613078565b60405180910390a1505050565b600560009054906101000a900473ffffffffffffffffffffffffffffffffffffffff1673ffffffffffffffffffffffffffffffffffffffff163373ffffffffffffffffffffffffffffffffffffffff16146114e3576040517f08c379a00000000000000000000000000000000000000000000000000000000081526004016114da90612c32565b60405180910390fd5b600460008154809291906114f6906131ce565b9190505550606060405180610120016040528060045481526020018881526020018781526020018681526020018581526020018481526020018381526020013373ffffffffffffffffffffffffffffffffffffffff1681526020018281525060008060045481526020019081526020016000206000820151816000015560208201518160010190816115889190612e90565b50604082015181600201908161159e9190612e90565b5060608201518160030190816115b49190612e90565b5060808201518160040190816115ca9190612e90565b5060a0820151816005015560c0820151816006015560e08201518160070160006101000a81548173ffffffffffffffffffffffffffffffffffffffff021916908373ffffffffffffffffffffffffffffffffffffffff16021790555061010082015181600801908051906020019061164392919061219c565b509050507f097b2611f3842984890c39e20a6418e6988576fe05ec53fe03c4857428716d2660045488888888888833604051611686989796959493929190613216565b60405180910390a150505050505050565b600560009054906101000a900473ffffffffffffffffffffffffffffffffffffffff1673ffffffffffffffffffffffffffffffffffffffff163373ffffffffffffffffffffffffffffffffffffffff1614611727576040517f08c379a000000000000000000000000000000000000000000000000000000000815260040161171e90612c32565b60405180910390fd5b8160008111801561173a57506004548111155b611779576040517f08c379a000000000000000000000000000000000000000000000000000000000815260040161177090612b66565b60405180910390fd5b600080848152602001908152602001600020600801829080600181540180825580915050600190039060005260206000200160009091909190915090816117c09190612e90565b50505050565b6003602052816000526040600020602052806000526040600020600091509150508060000160009054906101000a900460ff169080600101805461180990612bb5565b80601f016020809104026020016040519081016040528092919081815260200182805461183590612bb5565b80156118825780601f1061185757610100808354040283529160200191611882565b820191906000526020600020905b81548152906001019060200180831161186557829003601f168201915b50505050509080600201805461189790612bb5565b80601f01602080910402602001604051908101604052809291908181526020018280546118c390612bb5565b80156119105780601f106118e557610100808354040283529160200191611910565b820191906000526020600020905b8154815290600101906020018083116118f357829003601f168201915b50505050509080600301805461192590612bb5565b80601f016020809104026020016040519081016040528092919081815260200182805461195190612bb5565b801561199e5780601f106119735761010080835404028352916020019161199e565b820191906000526020600020905b81548152906001019060200180831161198157829003601f168201915b5050505050908060040160009054906101000a900473ffffffffffffffffffffffffffffffffffffffff16905085565b6119d66121f5565b600360003373ffffffffffffffffffffffffffffffffffffffff1673ffffffffffffffffffffffffffffffffffffffff168152602001908152602001600020600083815260200190815260200160002060000160009054906101000a900460ff16611a76576040517f08c379a0000000000000000000000000000000000000000000000000000000008152600401611a6d906132fc565b60405180910390fd5b600360003373ffffffffffffffffffffffffffffffffffffffff1673ffffffffffffffffffffffffffffffffffffffff16815260200190815260200160002060008381526020019081526020016000206040518060a00160405290816000820160009054906101000a900460ff16151515158152602001600182018054611afc90612bb5565b80601f0160208091040260200160405190810160405280929190818152602001828054611b2890612bb5565b8015611b755780601f10611b4a57610100808354040283529160200191611b75565b820191906000526020600020905b815481529060010190602001808311611b5857829003601f168201915b50505050508152602001600282018054611b8e90612bb5565b80601f0160208091040260200160405190810160405280929190818152602001828054611bba90612bb5565b8015611c075780601f10611bdc57610100808354040283529160200191611c07565b820191906000526020600020905b815481529060010190602001808311611bea57829003601f168201915b50505050508152602001600382018054611c2090612bb5565b80601f0160208091040260200160405190810160405280929190818152602001828054611c4c90612bb5565b8015611c995780601f10611c6e57610100808354040283529160200191611c99565b820191906000526020600020905b815481529060010190602001808311611c7c57829003601f168201915b505050505081526020016004820160009054906101000a900473ffffffffffffffffffffffffffffffffffffffff1673ffffffffffffffffffffffffffffffffffffffff1673ffffffffffffffffffffffffffffffffffffffff16815250509050919050565b6060600160003373ffffffffffffffffffffffffffffffffffffffff1673ffffffffffffffffffffffffffffffffffffffff168152602001908152602001600020600083815260200190815260200160002060009054906101000a900460ff16611d9e576040517f08c379a0000000000000000000000000000000000000000000000000000000008152600401611d9590612fec565b60405180910390fd5b600080838152602001908152602001600020600801805480602002602001604051908101604052809291908181526020016000905b82821015611e7f578382906000526020600020018054611df290612bb5565b80601f0160208091040260200160405190810160405280929190818152602001828054611e1e90612bb5565b8015611e6b5780601f10611e4057610100808354040283529160200191611e6b565b820191906000526020600020905b815481529060010190602001808311611e4e57829003601f168201915b505050505081526020019060010190611dd3565b505050509050919050565b60045481565b60026020528160005260406000206020528060005260406000206000915091509054906101000a900460ff1681565b600560009054906101000a900473ffffffffffffffffffffffffffffffffffffffff1681565b6000602052806000526040600020600091509050806000015490806001018054611f0e90612bb5565b80601f0160208091040260200160405190810160405280929190818152602001828054611f3a90612bb5565b8015611f875780601f10611f5c57610100808354040283529160200191611f87565b820191906000526020600020905b815481529060010190602001808311611f6a57829003601f168201915b505050505090806002018054611f9c90612bb5565b80601f0160208091040260200160405190810160405280929190818152602001828054611fc890612bb5565b80156120155780601f10611fea57610100808354040283529160200191612015565b820191906000526020600020905b815481529060010190602001808311611ff857829003601f168201915b50505050509080600301805461202a90612bb5565b80601f016020809104026020016040519081016040528092919081815260200182805461205690612bb5565b80156120a35780601f10612078576101008083540402835291602001916120a3565b820191906000526020600020905b81548152906001019060200180831161208657829003601f168201915b5050505050908060040180546120b890612bb5565b80601f01602080910402602001604051908101604052809291908181526020018280546120e490612bb5565b80156121315780601f1061210657610100808354040283529160200191612131565b820191906000526020600020905b81548152906001019060200180831161211457829003601f168201915b5050505050908060050154908060060154908060070160009054906101000a900473ffffffffffffffffffffffffffffffffffffffff16905088565b60016020528160005260406000206020528060005260406000206000915091509054906101000a900460ff1681565b8280548282559060005260206000209081019282156121e4579160200282015b828111156121e35782518290816121d39190612e90565b50916020019190600101906121bc565b5b5090506121f1919061223c565b5090565b6040518060a00160405280600015158152602001606081526020016060815260200160608152602001600073ffffffffffffffffffffffffffffffffffffffff1681525090565b5b8082111561225c57600081816122539190612260565b5060010161223d565b5090565b50805461226c90612bb5565b6000825580601f1061227e575061229d565b601f01602090049060005260206000209081019061229c91906122a0565b5b50565b5b808211156122b95760008160009055506001016122a1565b5090565b6000604051905090565b600080fd5b600080fd5b6000819050919050565b6122e4816122d1565b81146122ef57600080fd5b50565b600081359050612301816122db565b92915050565b60006020828403121561231d5761231c6122c7565b5b600061232b848285016122f2565b91505092915050565b600081519050919050565b600082825260208201905092915050565b60005b8381101561236e578082015181840152602081019050612353565b60008484015250505050565b6000601f19601f8301169050919050565b600061239682612334565b6123a0818561233f565b93506123b0818560208601612350565b6123b98161237a565b840191505092915050565b6123cd816122d1565b82525050565b600073ffffffffffffffffffffffffffffffffffffffff82169050919050565b60006123fe826123d3565b9050919050565b61240e816123f3565b82525050565b600060e082019050818103600083015261242e818a61238b565b90508181036020830152612442818961238b565b90508181036040830152612456818861238b565b9050818103606083015261246a818761238b565b905061247960808301866123c4565b61248660a08301856123c4565b61249360c0830184612405565b98975050505050505050565b600080fd5b600080fd5b7f4e487b7100000000000000000000000000000000000000000000000000000000600052604160045260246000fd5b6124e18261237a565b810181811067ffffffffffffffff82111715612500576124ff6124a9565b5b80604052505050565b60006125136122bd565b905061251f82826124d8565b919050565b600067ffffffffffffffff82111561253f5761253e6124a9565b5b6125488261237a565b9050602081019050919050565b82818337600083830152505050565b600061257761257284612524565b612509565b905082815260208101848484011115612593576125926124a4565b5b61259e848285612555565b509392505050565b600082601f8301126125bb576125ba61249f565b5b81356125cb848260208601612564565b91505092915050565b600080604083850312156125eb576125ea6122c7565b5b60006125f9858286016122f2565b925050602083013567ffffffffffffffff81111561261a576126196122cc565b5b612626858286016125a6565b9150509250929050565b60008060008060008060c0878903121561264d5761264c6122c7565b5b600087013567ffffffffffffffff81111561266b5761266a6122cc565b5b61267789828a016125a6565b965050602087013567ffffffffffffffff811115612698576126976122cc565b5b6126a489828a016125a6565b955050604087013567ffffffffffffffff8111156126c5576126c46122cc565b5b6126d189828a016125a6565b945050606087013567ffffffffffffffff8111156126f2576126f16122cc565b5b6126fe89828a016125a6565b935050608061270f89828a016122f2565b92505060a061272089828a016122f2565b9150509295509295509295565b612736816123f3565b811461274157600080fd5b50565b6000813590506127538161272d565b92915050565b600080604083850312156127705761276f6122c7565b5b600061277e85828601612744565b925050602061278f858286016122f2565b9150509250929050565b60008115159050919050565b6127ae81612799565b82525050565b600060a0820190506127c960008301886127a5565b81810360208301526127db818761238b565b905081810360408301526127ef818661238b565b90508181036060830152612803818561238b565b90506128126080830184612405565b9695505050505050565b61282581612799565b82525050565b600082825260208201905092915050565b600061284782612334565b612851818561282b565b9350612861818560208601612350565b61286a8161237a565b840191505092915050565b61287e816123f3565b82525050565b600060a08301600083015161289c600086018261281c565b50602083015184820360208601526128b4828261283c565b915050604083015184820360408601526128ce828261283c565b915050606083015184820360608601526128e8828261283c565b91505060808301516128fd6080860182612875565b508091505092915050565b600060208201905081810360008301526129228184612884565b905092915050565b600081519050919050565b600082825260208201905092915050565b6000819050602082019050919050565b6000612962838361283c565b905092915050565b6000602082019050919050565b60006129828261292a565b61298c8185612935565b93508360208202850161299e85612946565b8060005b858110156129da57848403895281516129bb8582612956565b94506129c68361296a565b925060208a019950506001810190506129a2565b50829750879550505050505092915050565b60006020820190508181036000830152612a068184612977565b905092915050565b6000602082019050612a2360008301846123c4565b92915050565b6000602082019050612a3e60008301846127a5565b92915050565b6000602082019050612a596000830184612405565b92915050565b6000612a6a826123d3565b9050919050565b612a7a81612a5f565b82525050565b600061010082019050612a96600083018b6123c4565b8181036020830152612aa8818a61238b565b90508181036040830152612abc818961238b565b90508181036060830152612ad0818861238b565b90508181036080830152612ae4818761238b565b9050612af360a08301866123c4565b612b0060c08301856123c4565b612b0d60e0830184612a71565b9998505050505050505050565b7f436f7572736520646f6573206e6f742065786973740000000000000000000000600082015250565b6000612b5060158361233f565b9150612b5b82612b1a565b602082019050919050565b60006020820190508181036000830152612b7f81612b43565b9050919050565b7f4e487b7100000000000000000000000000000000000000000000000000000000600052602260045260246000fd5b60006002820490506001821680612bcd57607f821691505b602082108103612be057612bdf612b86565b5b50919050565b7f4e6f742074686520636f6e7472616374206f776e657200000000000000000000600082015250565b6000612c1c60168361233f565b9150612c2782612be6565b602082019050919050565b60006020820190508181036000830152612c4b81612c0f565b9050919050565b7f436f75727365206e6f7420636f6d706c6574656420627920746865207374756460008201527f656e740000000000000000000000000000000000000000000000000000000000602082015250565b6000612cae60238361233f565b9150612cb982612c52565b604082019050919050565b60006020820190508181036000830152612cdd81612ca1565b9050919050565b60008190508160005260206000209050919050565b60006020601f8301049050919050565b600082821b905092915050565b600060088302612d467fffffffffffffffffffffffffffffffffffffffffffffffffffffffffffffffff82612d09565b612d508683612d09565b95508019841693508086168417925050509392505050565b6000819050919050565b6000612d8d612d88612d83846122d1565b612d68565b6122d1565b9050919050565b6000819050919050565b612da783612d72565b612dbb612db382612d94565b848454612d16565b825550505050565b600090565b612dd0612dc3565b612ddb818484612d9e565b505050565b5b81811015612dff57612df4600082612dc8565b600181019050612de1565b5050565b601f821115612e4457612e1581612ce4565b612e1e84612cf9565b81016020851015612e2d578190505b612e41612e3985612cf9565b830182612de0565b50505b505050565b600082821c905092915050565b6000612e6760001984600802612e49565b1980831691505092915050565b6000612e808383612e56565b9150826002028217905092915050565b612e9982612334565b67ffffffffffffffff811115612eb257612eb16124a9565b5b612ebc8254612bb5565b612ec7828285612e03565b600060209050601f831160018114612efa5760008415612ee8578287015190505b612ef28582612e74565b865550612f5a565b601f198416612f0886612ce4565b60005b82811015612f3057848901518255600182019150602085019450602081019050612f0b565b86831015612f4d5784890151612f49601f891682612e56565b8355505b6001600288020188555050505b505050505050565b6000606082019050612f776000830186612405565b612f8460208301856123c4565b8181036040830152612f96818461238b565b9050949350505050565b7f596f75206e65656420746f206275792074686520636f75727365206669727374600082015250565b6000612fd660208361233f565b9150612fe182612fa0565b602082019050919050565b6000602082019050818103600083015261300581612fc9565b9050919050565b7f436f7572736520616c726561647920636f6d706c657465640000000000000000600082015250565b600061304260188361233f565b915061304d8261300c565b602082019050919050565b6000602082019050818103600083015261307181613035565b9050919050565b600060408201905061308d6000830185612405565b61309a60208301846123c4565b9392505050565b7f4e6f7420656e6f7567682045544820746f20707572636861736520746865206360008201527f6f75727365000000000000000000000000000000000000000000000000000000602082015250565b60006130fd60258361233f565b9150613108826130a1565b604082019050919050565b6000602082019050818103600083015261312c816130f0565b9050919050565b7f436f7572736520616c7265616479207075726368617365640000000000000000600082015250565b600061316960188361233f565b915061317482613133565b602082019050919050565b600060208201905081810360008301526131988161315c565b9050919050565b7f4e487b7100000000000000000000000000000000000000000000000000000000600052601160045260246000fd5b60006131d9826122d1565b91507fffffffffffffffffffffffffffffffffffffffffffffffffffffffffffffffff820361320b5761320a61319f565b5b600182019050919050565b60006101008201905061322c600083018b6123c4565b818103602083015261323e818a61238b565b90508181036040830152613252818961238b565b90508181036060830152613266818861238b565b9050818103608083015261327a818761238b565b905061328960a08301866123c4565b61329660c08301856123c4565b6132a360e0830184612405565b9998505050505050505050565b7f4e6f206365727469666963617465206973737565642079657400000000000000600082015250565b60006132e660198361233f565b91506132f1826132b0565b602082019050919050565b60006020820190508181036000830152613315816132d9565b905091905056fea2646970667358221220c0233fe4877dbcd13122be1d1c08802022c4ac43d103db7573495f84d0d7f0b964736f6c63430008140033",
    "linkReferences": {},
    "deployedLinkReferences": {}
}